{
  "contractName": "ERC20",
  "abi": [
    {
      "inputs": [],
      "stateMutability": "nonpayable",
      "type": "constructor"
    },
    {
      "anonymous": false,
      "inputs": [
        {
          "indexed": false,
          "internalType": "address",
          "name": "owner",
          "type": "address"
        },
        {
          "indexed": false,
          "internalType": "address",
          "name": "spender",
          "type": "address"
        },
        {
          "indexed": false,
          "internalType": "uint256",
          "name": "amount",
          "type": "uint256"
        }
      ],
      "name": "Approval",
      "type": "event"
    },
    {
      "anonymous": false,
      "inputs": [
        {
          "indexed": true,
          "internalType": "address",
          "name": "previousOwner",
          "type": "address"
        },
        {
          "indexed": true,
          "internalType": "address",
          "name": "newOwner",
          "type": "address"
        }
      ],
      "name": "OwnershipTransferred",
      "type": "event"
    },
    {
      "anonymous": false,
      "inputs": [
        {
          "indexed": false,
          "internalType": "address",
          "name": "sender",
          "type": "address"
        },
        {
          "indexed": false,
          "internalType": "address",
          "name": "receiver",
          "type": "address"
        },
        {
          "indexed": false,
          "internalType": "uint256",
          "name": "amount",
          "type": "uint256"
        }
      ],
      "name": "Transfer",
      "type": "event"
    },
    {
      "inputs": [],
      "name": "owner",
      "outputs": [
        {
          "internalType": "address",
          "name": "",
          "type": "address"
        }
      ],
      "stateMutability": "view",
      "type": "function",
      "constant": true
    },
    {
      "inputs": [
        {
          "internalType": "address",
          "name": "_newOwner",
          "type": "address"
        }
      ],
      "name": "transferOwnership",
      "outputs": [],
      "stateMutability": "nonpayable",
      "type": "function"
    },
    {
      "inputs": [],
      "name": "name",
      "outputs": [
        {
          "internalType": "string",
          "name": "",
          "type": "string"
        }
      ],
      "stateMutability": "view",
      "type": "function",
      "constant": true
    },
    {
      "inputs": [],
      "name": "symbol",
      "outputs": [
        {
          "internalType": "string",
          "name": "",
          "type": "string"
        }
      ],
      "stateMutability": "view",
      "type": "function",
      "constant": true
    },
    {
      "inputs": [],
      "name": "decimals",
      "outputs": [
        {
          "internalType": "uint8",
          "name": "",
          "type": "uint8"
        }
      ],
      "stateMutability": "view",
      "type": "function",
      "constant": true
    },
    {
      "inputs": [],
      "name": "totalSupply",
      "outputs": [
        {
          "internalType": "uint256",
          "name": "",
          "type": "uint256"
        }
      ],
      "stateMutability": "view",
      "type": "function",
      "constant": true
    },
    {
      "inputs": [
        {
          "internalType": "address",
          "name": "tokenOwner",
          "type": "address"
        }
      ],
      "name": "balanceOf",
      "outputs": [
        {
          "internalType": "uint256",
          "name": "balance",
          "type": "uint256"
        }
      ],
      "stateMutability": "view",
      "type": "function",
      "constant": true
    },
    {
      "inputs": [
        {
          "internalType": "uint256",
          "name": "_amount",
          "type": "uint256"
        }
      ],
      "name": "mint",
      "outputs": [],
      "stateMutability": "nonpayable",
      "type": "function"
    },
    {
      "inputs": [
        {
          "internalType": "uint256",
          "name": "_amount",
          "type": "uint256"
        }
      ],
      "name": "burn",
      "outputs": [],
      "stateMutability": "nonpayable",
      "type": "function"
    },
    {
      "inputs": [
        {
          "internalType": "address",
          "name": "receiver",
          "type": "address"
        },
        {
          "internalType": "uint256",
          "name": "amount",
          "type": "uint256"
        }
      ],
      "name": "transfer",
      "outputs": [
        {
          "internalType": "bool",
          "name": "success",
          "type": "bool"
        }
      ],
      "stateMutability": "nonpayable",
      "type": "function"
    },
    {
      "inputs": [
        {
          "internalType": "address",
          "name": "sender",
          "type": "address"
        },
        {
          "internalType": "address",
          "name": "receiver",
          "type": "address"
        },
        {
          "internalType": "uint256",
          "name": "amount",
          "type": "uint256"
        }
      ],
      "name": "transferFrom",
      "outputs": [
        {
          "internalType": "bool",
          "name": "success",
          "type": "bool"
        }
      ],
      "stateMutability": "nonpayable",
      "type": "function"
    },
    {
      "inputs": [
        {
          "internalType": "address",
          "name": "owner",
          "type": "address"
        },
        {
          "internalType": "address",
          "name": "spender",
          "type": "address"
        }
      ],
      "name": "allowance",
      "outputs": [
        {
          "internalType": "uint256",
          "name": "",
          "type": "uint256"
        }
      ],
      "stateMutability": "view",
      "type": "function",
      "constant": true
    },
    {
      "inputs": [
        {
          "internalType": "address",
          "name": "spender",
          "type": "address"
        },
        {
          "internalType": "uint256",
          "name": "amount",
          "type": "uint256"
        }
      ],
      "name": "approve",
      "outputs": [
        {
          "internalType": "bool",
          "name": "success",
          "type": "bool"
        }
      ],
      "stateMutability": "nonpayable",
      "type": "function"
    },
    {
      "inputs": [
        {
          "internalType": "address",
          "name": "_address",
          "type": "address"
        }
      ],
      "name": "isStakeholder",
      "outputs": [
        {
          "internalType": "bool",
          "name": "",
          "type": "bool"
        },
        {
          "internalType": "uint256",
          "name": "",
          "type": "uint256"
        }
      ],
      "stateMutability": "view",
      "type": "function",
      "constant": true
    },
    {
      "inputs": [
        {
          "internalType": "address",
          "name": "_stakeholder",
          "type": "address"
        }
      ],
      "name": "addStakeholder",
      "outputs": [],
      "stateMutability": "nonpayable",
      "type": "function"
    },
    {
      "inputs": [
        {
          "internalType": "address",
          "name": "_stakeholder",
          "type": "address"
        }
      ],
      "name": "removeStakeholder",
      "outputs": [],
      "stateMutability": "nonpayable",
      "type": "function"
    },
    {
      "inputs": [
        {
          "internalType": "address",
          "name": "_stakeholder",
          "type": "address"
        }
      ],
      "name": "stakeOf",
      "outputs": [
        {
          "internalType": "uint256",
          "name": "",
          "type": "uint256"
        }
      ],
      "stateMutability": "view",
      "type": "function",
      "constant": true
    },
    {
      "inputs": [],
      "name": "totalStakes",
      "outputs": [
        {
          "internalType": "uint256",
          "name": "",
          "type": "uint256"
        }
      ],
      "stateMutability": "view",
      "type": "function",
      "constant": true
    },
    {
      "inputs": [
        {
          "internalType": "uint256",
          "name": "_stake",
          "type": "uint256"
        }
      ],
      "name": "createStake",
      "outputs": [],
      "stateMutability": "nonpayable",
      "type": "function"
    },
    {
      "inputs": [
        {
          "internalType": "uint256",
          "name": "_stake",
          "type": "uint256"
        }
      ],
      "name": "removeStake",
      "outputs": [],
      "stateMutability": "nonpayable",
      "type": "function"
    },
    {
      "inputs": [
        {
          "internalType": "address",
          "name": "_stakeholder",
          "type": "address"
        }
      ],
      "name": "rewardOf",
      "outputs": [
        {
          "internalType": "uint256",
          "name": "",
          "type": "uint256"
        }
      ],
      "stateMutability": "view",
      "type": "function",
      "constant": true
    },
    {
      "inputs": [],
      "name": "totalRewards",
      "outputs": [
        {
          "internalType": "uint256",
          "name": "",
          "type": "uint256"
        }
      ],
      "stateMutability": "view",
      "type": "function",
      "constant": true
    },
    {
      "inputs": [
        {
          "internalType": "address",
          "name": "_stakeholder",
          "type": "address"
        }
      ],
      "name": "calculateReward",
      "outputs": [
        {
          "internalType": "uint256",
          "name": "",
          "type": "uint256"
        }
      ],
      "stateMutability": "view",
      "type": "function",
      "constant": true
    },
    {
      "inputs": [],
      "name": "distributeRewards",
      "outputs": [],
      "stateMutability": "nonpayable",
      "type": "function"
    },
    {
      "inputs": [],
      "name": "withdrawReward",
      "outputs": [],
      "stateMutability": "nonpayable",
      "type": "function"
    }
  ],
  "bytecode": "0x60806040523480156200001157600080fd5b50336000806101000a81548173ffffffffffffffffffffffffffffffffffffffff021916908373ffffffffffffffffffffffffffffffffffffffff1602179055506040518060400160405280601081526020017f52657075746174696f6e20546f6b656e00000000000000000000000000000000815250600390805190602001906200009f92919062000169565b506040518060400160405280600381526020017f525054000000000000000000000000000000000000000000000000000000000081525060049080519060200190620000ed92919062000169565b506012600560006101000a81548160ff021916908360ff1602179055506b033b2e3c9fd0803ce8000000600681905550600654600160003373ffffffffffffffffffffffffffffffffffffffff1673ffffffffffffffffffffffffffffffffffffffff168152602001908152602001600020819055506200027e565b828054620001779062000219565b90600052602060002090601f0160209004810192826200019b5760008555620001e7565b82601f10620001b657805160ff1916838001178555620001e7565b82800160010185558215620001e7579182015b82811115620001e6578251825591602001919060010190620001c9565b5b509050620001f69190620001fa565b5090565b5b8082111562000215576000816000905550600101620001fb565b5090565b600060028204905060018216806200023257607f821691505b602082108114156200024957620002486200024f565b5b50919050565b7f4e487b7100000000000000000000000000000000000000000000000000000000600052602260045260246000fd5b61245e806200028e6000396000f3fe608060405234801561001057600080fd5b50600436106101735760003560e01c80638da5cb5b116100de578063bf9befb111610097578063dd62ed3e11610071578063dd62ed3e1461043a578063e5c42fd11461046a578063ef037b9014610486578063f2fde38b146104b757610173565b8063bf9befb1146103e2578063c885bc5814610400578063d82e39621461040a57610173565b80638da5cb5b14610322578063939624ab1461034057806395d89b411461035c578063a0712d681461037a578063a9059cbb14610396578063bcb0c2d7146103c657610173565b806323b872dd1161013057806323b872dd1461024e578063313ce5671461027e578063426233601461029c57806342966c68146102cc5780636f4a2cd0146102e857806370a08231146102f257610173565b806306fdde0314610178578063095ea7b3146101965780630e15561a146101c657806318160ddd146101e45780631bf6ddae146102025780631d62ebd91461021e575b600080fd5b6101806104d3565b60405161018d9190611f4b565b60405180910390f35b6101b060048036038101906101ab9190611d09565b610565565b6040516101bd9190611f07565b60405180910390f35b6101ce61070c565b6040516101db919061202d565b60405180910390f35b6101ec6107f7565b6040516101f9919061202d565b60405180910390f35b61021c60048036038101906102179190611d45565b610801565b005b61023860048036038101906102339190611c55565b6108f5565b604051610245919061202d565b60405180910390f35b61026860048036038101906102639190611cba565b61093e565b6040516102759190611f07565b60405180910390f35b610286610b2d565b6040516102939190612048565b60405180910390f35b6102b660048036038101906102b19190611c55565b610b44565b6040516102c3919061202d565b60405180910390f35b6102e660048036038101906102e19190611d45565b610b8d565b005b6102f0610bf2565b005b61030c60048036038101906103079190611c55565b610d7e565b604051610319919061202d565b60405180910390f35b61032a610dc7565b6040516103379190611eb5565b60405180910390f35b61035a60048036038101906103559190611d45565b610deb565b005b610364610edf565b6040516103719190611f4b565b60405180910390f35b610394600480360381019061038f9190611d45565b610f71565b005b6103b060048036038101906103ab9190611d09565b610fd6565b6040516103bd9190611f07565b60405180910390f35b6103e060048036038101906103db9190611c55565b611035565b005b6103ea6111b6565b6040516103f7919061202d565b60405180910390f35b6104086112a1565b005b610424600480360381019061041f9190611c55565b611337565b604051610431919061202d565b60405180910390f35b610454600480360381019061044f9190611c7e565b61138c565b604051610461919061202d565b60405180910390f35b610484600480360381019061047f9190611c55565b611413565b005b6104a0600480360381019061049b9190611c55565b61148e565b6040516104ae929190611f22565b60405180910390f35b6104d160048036038101906104cc9190611c55565b611568565b005b6060600380546104e2906121c2565b80601f016020809104026020016040519081016040528092919081815260200182805461050e906121c2565b801561055b5780601f106105305761010080835404028352916020019161055b565b820191906000526020600020905b81548152906001019060200180831161053e57829003601f168201915b5050505050905090565b60008073ffffffffffffffffffffffffffffffffffffffff163373ffffffffffffffffffffffffffffffffffffffff1614156105d6576040517f08c379a00000000000000000000000000000000000000000000000000000000081526004016105cd90611fcd565b60405180910390fd5b600073ffffffffffffffffffffffffffffffffffffffff168373ffffffffffffffffffffffffffffffffffffffff161415610646576040517f08c379a000000000000000000000000000000000000000000000000000000000815260040161063d90611f6d565b60405180910390fd5b81600260003373ffffffffffffffffffffffffffffffffffffffff1673ffffffffffffffffffffffffffffffffffffffff16815260200190815260200160002060008573ffffffffffffffffffffffffffffffffffffffff1673ffffffffffffffffffffffffffffffffffffffff168152602001908152602001600020819055507f8c5be1e5ebec7d5bd14f71427d1e84f3dd0314c0f7b2291e5b200ac8c7c3b9253384846040516106fa93929190611ed0565b60405180910390a16001905092915050565b6000806000905060005b6007805490508110156107ef576107d96009600060078481548110610764577f4e487b7100000000000000000000000000000000000000000000000000000000600052603260045260246000fd5b9060005260206000200160009054906101000a900473ffffffffffffffffffffffffffffffffffffffff1673ffffffffffffffffffffffffffffffffffffffff1673ffffffffffffffffffffffffffffffffffffffff16815260200190815260200160002054836116b790919063ffffffff16565b91506001816107e8919061207f565b9050610716565b508091505090565b6000600654905090565b61080b3382611715565b6000600860003373ffffffffffffffffffffffffffffffffffffffff1673ffffffffffffffffffffffffffffffffffffffff16815260200190815260200160002054141561085d5761085c33611413565b5b6108af81600860003373ffffffffffffffffffffffffffffffffffffffff1673ffffffffffffffffffffffffffffffffffffffff168152602001908152602001600020546116b790919063ffffffff16565b600860003373ffffffffffffffffffffffffffffffffffffffff1673ffffffffffffffffffffffffffffffffffffffff1681526020019081526020016000208190555050565b6000600960008373ffffffffffffffffffffffffffffffffffffffff1673ffffffffffffffffffffffffffffffffffffffff168152602001908152602001600020549050919050565b600081600260008673ffffffffffffffffffffffffffffffffffffffff1673ffffffffffffffffffffffffffffffffffffffff16815260200190815260200160002060003373ffffffffffffffffffffffffffffffffffffffff1673ffffffffffffffffffffffffffffffffffffffff1681526020019081526020016000205410156109c957600080fd5b610a4f600260008673ffffffffffffffffffffffffffffffffffffffff1673ffffffffffffffffffffffffffffffffffffffff16815260200190815260200160002060003373ffffffffffffffffffffffffffffffffffffffff1673ffffffffffffffffffffffffffffffffffffffff1681526020019081526020016000205483611875565b600260008673ffffffffffffffffffffffffffffffffffffffff1673ffffffffffffffffffffffffffffffffffffffff16815260200190815260200160002060003373ffffffffffffffffffffffffffffffffffffffff1673ffffffffffffffffffffffffffffffffffffffff16815260200190815260200160002081905550610ae784848460016118d4909392919063ffffffff16565b7fddf252ad1be2c89b69c2b068fc378daa952ba7f163c4a11628f55a4df523b3ef848484604051610b1a93929190611ed0565b60405180910390a1600190509392505050565b6000600560009054906101000a900460ff16905090565b6000600860008373ffffffffffffffffffffffffffffffffffffffff1673ffffffffffffffffffffffffffffffffffffffff168152602001908152602001600020549050919050565b60008054906101000a900473ffffffffffffffffffffffffffffffffffffffff1673ffffffffffffffffffffffffffffffffffffffff163373ffffffffffffffffffffffffffffffffffffffff1614610be557600080fd5b610bef3382611715565b50565b60008054906101000a900473ffffffffffffffffffffffffffffffffffffffff1673ffffffffffffffffffffffffffffffffffffffff163373ffffffffffffffffffffffffffffffffffffffff1614610c4a57600080fd5b60005b600780549050811015610d7b57600060078281548110610c96577f4e487b7100000000000000000000000000000000000000000000000000000000600052603260045260246000fd5b9060005260206000200160009054906101000a900473ffffffffffffffffffffffffffffffffffffffff1690506000610cce82611337565b9050610d2281600960008573ffffffffffffffffffffffffffffffffffffffff1673ffffffffffffffffffffffffffffffffffffffff168152602001908152602001600020546116b790919063ffffffff16565b600960008473ffffffffffffffffffffffffffffffffffffffff1673ffffffffffffffffffffffffffffffffffffffff168152602001908152602001600020819055505050600181610d74919061207f565b9050610c4d565b50565b6000600160008373ffffffffffffffffffffffffffffffffffffffff1673ffffffffffffffffffffffffffffffffffffffff168152602001908152602001600020549050919050565b60008054906101000a900473ffffffffffffffffffffffffffffffffffffffff1681565b610e3d81600860003373ffffffffffffffffffffffffffffffffffffffff1673ffffffffffffffffffffffffffffffffffffffff1681526020019081526020016000205461187590919063ffffffff16565b600860003373ffffffffffffffffffffffffffffffffffffffff1673ffffffffffffffffffffffffffffffffffffffff168152602001908152602001600020819055506000600860003373ffffffffffffffffffffffffffffffffffffffff1673ffffffffffffffffffffffffffffffffffffffff168152602001908152602001600020541415610ed257610ed133611035565b5b610edc3382611acb565b50565b606060048054610eee906121c2565b80601f0160208091040260200160405190810160405280929190818152602001828054610f1a906121c2565b8015610f675780601f10610f3c57610100808354040283529160200191610f67565b820191906000526020600020905b815481529060010190602001808311610f4a57829003601f168201915b5050505050905090565b60008054906101000a900473ffffffffffffffffffffffffffffffffffffffff1673ffffffffffffffffffffffffffffffffffffffff163373ffffffffffffffffffffffffffffffffffffffff1614610fc957600080fd5b610fd33382611acb565b50565b6000610ff033848460016118d4909392919063ffffffff16565b7fddf252ad1be2c89b69c2b068fc378daa952ba7f163c4a11628f55a4df523b3ef33848460405161102393929190611ed0565b60405180910390a16001905092915050565b6000806110418361148e565b9150915081156111b1576007600160078054905061105f9190612106565b81548110611096577f4e487b7100000000000000000000000000000000000000000000000000000000600052603260045260246000fd5b9060005260206000200160009054906101000a900473ffffffffffffffffffffffffffffffffffffffff16600782815481106110fb577f4e487b7100000000000000000000000000000000000000000000000000000000600052603260045260246000fd5b9060005260206000200160006101000a81548173ffffffffffffffffffffffffffffffffffffffff021916908373ffffffffffffffffffffffffffffffffffffffff160217905550600780548061117b577f4e487b7100000000000000000000000000000000000000000000000000000000600052603160045260246000fd5b6001900381819060005260206000200160006101000a81549073ffffffffffffffffffffffffffffffffffffffff021916905590555b505050565b6000806000905060005b60078054905081101561129957611283600860006007848154811061120e577f4e487b7100000000000000000000000000000000000000000000000000000000600052603260045260246000fd5b9060005260206000200160009054906101000a900473ffffffffffffffffffffffffffffffffffffffff1673ffffffffffffffffffffffffffffffffffffffff1673ffffffffffffffffffffffffffffffffffffffff16815260200190815260200160002054836116b790919063ffffffff16565b9150600181611292919061207f565b90506111c0565b508091505090565b6000600960003373ffffffffffffffffffffffffffffffffffffffff1673ffffffffffffffffffffffffffffffffffffffff1681526020019081526020016000205490506000600960003373ffffffffffffffffffffffffffffffffffffffff1673ffffffffffffffffffffffffffffffffffffffff168152602001908152602001600020819055506113343382611acb565b50565b60006064600860008473ffffffffffffffffffffffffffffffffffffffff1673ffffffffffffffffffffffffffffffffffffffff1681526020019081526020016000205461138591906120d5565b9050919050565b6000600260008473ffffffffffffffffffffffffffffffffffffffff1673ffffffffffffffffffffffffffffffffffffffff16815260200190815260200160002060008373ffffffffffffffffffffffffffffffffffffffff1673ffffffffffffffffffffffffffffffffffffffff16815260200190815260200160002054905092915050565b600061141e8261148e565b5090508061148a576007829080600181540180825580915050600190039060005260206000200160009091909190916101000a81548173ffffffffffffffffffffffffffffffffffffffff021916908373ffffffffffffffffffffffffffffffffffffffff1602179055505b5050565b60008060005b60078054905081101561155a57600781815481106114db577f4e487b7100000000000000000000000000000000000000000000000000000000600052603260045260246000fd5b9060005260206000200160009054906101000a900473ffffffffffffffffffffffffffffffffffffffff1673ffffffffffffffffffffffffffffffffffffffff168473ffffffffffffffffffffffffffffffffffffffff161415611546576001819250925050611563565b600181611553919061207f565b9050611494565b50600080915091505b915091565b60008054906101000a900473ffffffffffffffffffffffffffffffffffffffff1673ffffffffffffffffffffffffffffffffffffffff163373ffffffffffffffffffffffffffffffffffffffff16146115c057600080fd5b600073ffffffffffffffffffffffffffffffffffffffff168173ffffffffffffffffffffffffffffffffffffffff1614156115fa57600080fd5b8073ffffffffffffffffffffffffffffffffffffffff1660008054906101000a900473ffffffffffffffffffffffffffffffffffffffff1673ffffffffffffffffffffffffffffffffffffffff167f8be0079c531659141344cd1fd0a4f28419497f9722a3daafe3b4186f6b6457e060405160405180910390a3806000806101000a81548173ffffffffffffffffffffffffffffffffffffffff021916908373ffffffffffffffffffffffffffffffffffffffff16021790555050565b60008082846116c6919061207f565b90508381101561170b576040517f08c379a000000000000000000000000000000000000000000000000000000000815260040161170290611f8d565b60405180910390fd5b8091505092915050565b600073ffffffffffffffffffffffffffffffffffffffff168273ffffffffffffffffffffffffffffffffffffffff161415611785576040517f08c379a000000000000000000000000000000000000000000000000000000000815260040161177c90611fad565b60405180910390fd5b6117d781600160008573ffffffffffffffffffffffffffffffffffffffff1673ffffffffffffffffffffffffffffffffffffffff1681526020019081526020016000205461187590919063ffffffff16565b600160008473ffffffffffffffffffffffffffffffffffffffff1673ffffffffffffffffffffffffffffffffffffffff1681526020019081526020016000208190555061182f8160065461187590919063ffffffff16565b6006819055507fddf252ad1be2c89b69c2b068fc378daa952ba7f163c4a11628f55a4df523b3ef8260008360405161186993929190611ed0565b60405180910390a15050565b6000828211156118ba576040517f08c379a00000000000000000000000000000000000000000000000000000000081526004016118b190611fed565b60405180910390fd5b600082846118c89190612106565b90508091505092915050565b808460008573ffffffffffffffffffffffffffffffffffffffff1673ffffffffffffffffffffffffffffffffffffffff16815260200190815260200160002054101561191f57600080fd5b8360008373ffffffffffffffffffffffffffffffffffffffff1673ffffffffffffffffffffffffffffffffffffffff168152602001908152602001600020546119a68560008573ffffffffffffffffffffffffffffffffffffffff1673ffffffffffffffffffffffffffffffffffffffff16815260200190815260200160002054836116b7565b10156119b157600080fd5b6119f98460008573ffffffffffffffffffffffffffffffffffffffff1673ffffffffffffffffffffffffffffffffffffffff1681526020019081526020016000205482611875565b8460008573ffffffffffffffffffffffffffffffffffffffff1673ffffffffffffffffffffffffffffffffffffffff16815260200190815260200160002081905550611a838460008473ffffffffffffffffffffffffffffffffffffffff1673ffffffffffffffffffffffffffffffffffffffff16815260200190815260200160002054826116b7565b8460008473ffffffffffffffffffffffffffffffffffffffff1673ffffffffffffffffffffffffffffffffffffffff1681526020019081526020016000208190555050505050565b600073ffffffffffffffffffffffffffffffffffffffff168273ffffffffffffffffffffffffffffffffffffffff161415611b3b576040517f08c379a0000000000000000000000000000000000000000000000000000000008152600401611b329061200d565b60405180910390fd5b611b50816006546116b790919063ffffffff16565b600681905550611ba881600160008573ffffffffffffffffffffffffffffffffffffffff1673ffffffffffffffffffffffffffffffffffffffff168152602001908152602001600020546116b790919063ffffffff16565b600160008473ffffffffffffffffffffffffffffffffffffffff1673ffffffffffffffffffffffffffffffffffffffff168152602001908152602001600020819055507fddf252ad1be2c89b69c2b068fc378daa952ba7f163c4a11628f55a4df523b3ef60008383604051611c1f93929190611ed0565b60405180910390a15050565b600081359050611c3a816123fa565b92915050565b600081359050611c4f81612411565b92915050565b600060208284031215611c6757600080fd5b6000611c7584828501611c2b565b91505092915050565b60008060408385031215611c9157600080fd5b6000611c9f85828601611c2b565b9250506020611cb085828601611c2b565b9150509250929050565b600080600060608486031215611ccf57600080fd5b6000611cdd86828701611c2b565b9350506020611cee86828701611c2b565b9250506040611cff86828701611c40565b9150509250925092565b60008060408385031215611d1c57600080fd5b6000611d2a85828601611c2b565b9250506020611d3b85828601611c40565b9150509250929050565b600060208284031215611d5757600080fd5b6000611d6584828501611c40565b91505092915050565b611d778161213a565b82525050565b611d868161214c565b82525050565b6000611d9782612063565b611da1818561206e565b9350611db181856020860161218f565b611dba81612281565b840191505092915050565b6000611dd260228361206e565b9150611ddd82612292565b604082019050919050565b6000611df5601b8361206e565b9150611e00826122e1565b602082019050919050565b6000611e1860218361206e565b9150611e238261230a565b604082019050919050565b6000611e3b60248361206e565b9150611e4682612359565b604082019050919050565b6000611e5e60148361206e565b9150611e69826123a8565b602082019050919050565b6000611e81601f8361206e565b9150611e8c826123d1565b602082019050919050565b611ea081612178565b82525050565b611eaf81612182565b82525050565b6000602082019050611eca6000830184611d6e565b92915050565b6000606082019050611ee56000830186611d6e565b611ef26020830185611d6e565b611eff6040830184611e97565b949350505050565b6000602082019050611f1c6000830184611d7d565b92915050565b6000604082019050611f376000830185611d7d565b611f446020830184611e97565b9392505050565b60006020820190508181036000830152611f658184611d8c565b905092915050565b60006020820190508181036000830152611f8681611dc5565b9050919050565b60006020820190508181036000830152611fa681611de8565b9050919050565b60006020820190508181036000830152611fc681611e0b565b9050919050565b60006020820190508181036000830152611fe681611e2e565b9050919050565b6000602082019050818103600083015261200681611e51565b9050919050565b6000602082019050818103600083015261202681611e74565b9050919050565b60006020820190506120426000830184611e97565b92915050565b600060208201905061205d6000830184611ea6565b92915050565b600081519050919050565b600082825260208201905092915050565b600061208a82612178565b915061209583612178565b9250827fffffffffffffffffffffffffffffffffffffffffffffffffffffffffffffffff038211156120ca576120c96121f4565b5b828201905092915050565b60006120e082612178565b91506120eb83612178565b9250826120fb576120fa612223565b5b828204905092915050565b600061211182612178565b915061211c83612178565b92508282101561212f5761212e6121f4565b5b828203905092915050565b600061214582612158565b9050919050565b60008115159050919050565b600073ffffffffffffffffffffffffffffffffffffffff82169050919050565b6000819050919050565b600060ff82169050919050565b60005b838110156121ad578082015181840152602081019050612192565b838111156121bc576000848401525b50505050565b600060028204905060018216806121da57607f821691505b602082108114156121ee576121ed612252565b5b50919050565b7f4e487b7100000000000000000000000000000000000000000000000000000000600052601160045260246000fd5b7f4e487b7100000000000000000000000000000000000000000000000000000000600052601260045260246000fd5b7f4e487b7100000000000000000000000000000000000000000000000000000000600052602260045260246000fd5b6000601f19601f8301169050919050565b7f45524332303a20617070726f766520746f20746865207a65726f20616464726560008201527f7373000000000000000000000000000000000000000000000000000000000000602082015250565b7f536166654d6174683a206164646974696f6e206f766572666c6f770000000000600082015250565b7f45524332303a206275726e2066726f6d20746865207a65726f2061646472657360008201527f7300000000000000000000000000000000000000000000000000000000000000602082015250565b7f45524332303a20617070726f76652066726f6d20746865207a65726f2061646460008201527f7265737300000000000000000000000000000000000000000000000000000000602082015250565b7f7375627472616374696f6e206f766572666c6f77000000000000000000000000600082015250565b7f45524332303a206d696e7420746f20746865207a65726f206164647265737300600082015250565b6124038161213a565b811461240e57600080fd5b50565b61241a81612178565b811461242557600080fd5b5056fea2646970667358221220f2573c15c8b5c4b79d5f10262fc1317e3d5016c07af5796b4be3c86e0d62a24f64736f6c63430008010033",
  "immutableReferences": {},
  "source": "// SPDX-License-Identifier: MIT\r\npragma solidity ^0.8.1;\r\n\r\nimport \"../lib/SafeMath.sol\";\r\nimport \"../ownership/Ownership.sol\";\r\n\r\nlibrary Balances {\r\n    \r\n    using SafeMath for *;\r\n    \r\n    function move(mapping(address => uint256) storage balances, address sender, address receiver, uint amount) internal {\r\n        require(balances[sender] >= amount);\r\n        require(SafeMath.add(balances[receiver] , amount) >= balances[receiver]);\r\n        balances[sender] = SafeMath.sub(balances[sender] ,amount);\r\n        balances[receiver] = SafeMath.add(balances[receiver],amount);\r\n    }\r\n}\r\n\r\ncontract ERC20 is Ownership{\r\n    \r\n    using Balances for *;\r\n    using SafeMath for uint;\r\n    \r\n    mapping(address => uint256) private balances;\r\n    mapping(address => mapping (address => uint256)) private allowed;\r\n    \r\n    string private _name;\r\n    string private _symbol;\r\n    uint8 private _decimals;\r\n    uint256 private _totalSupply;\r\n    \r\n    address[] internal stakeholders;\r\n    mapping(address => uint256) internal stakes;\r\n    mapping(address => uint256) internal rewards;\r\n    \r\n    constructor () {\r\n        _name = \"Reputation Token\";\r\n        _symbol = \"RPT\";\r\n        _decimals = 18;\r\n        _totalSupply = 1000000000 * 10**18;\r\n        balances[msg.sender] = _totalSupply;\r\n    }\r\n    \r\n    function name() public view returns (string memory) {\r\n        return _name;\r\n    }\r\n\r\n    function symbol() public view returns (string memory) {\r\n        return _symbol;\r\n    }\r\n\r\n    function decimals() public view returns (uint8) {\r\n        return _decimals;\r\n    }\r\n    \r\n    function totalSupply() public view returns (uint256) {\r\n        return _totalSupply;\r\n    }\r\n\r\n    function balanceOf(address tokenOwner) public view returns (uint balance) {\r\n        return balances[tokenOwner];\r\n    }\r\n\r\n    event Transfer(address sender, address receiver, uint amount);\r\n    event Approval(address owner, address spender, uint amount);\r\n\r\n    function mint(uint _amount) external onlyOwner{\r\n        _mint(msg.sender, _amount);\r\n    }\r\n    \r\n    function burn(uint _amount) external onlyOwner{\r\n        _burn(msg.sender, _amount);\r\n    }\r\n\r\n    function transfer(address receiver, uint amount) public returns (bool success) {\r\n        balances.move(msg.sender, receiver, amount);\r\n        emit Transfer(msg.sender, receiver, amount);\r\n        return true;\r\n    }\r\n\r\n    function transferFrom(address sender, address receiver, uint amount) public returns (bool success) {\r\n        require(allowed[sender][msg.sender] >= amount);\r\n        allowed[sender][msg.sender] = SafeMath.sub(allowed[sender][msg.sender], amount);\r\n        balances.move(sender, receiver, amount);\r\n        emit Transfer(sender, receiver, amount);\r\n        return true;\r\n    }\r\n    \r\n    function allowance(address owner, address spender) public view returns (uint256) {\r\n        return allowed[owner][spender];\r\n    }\r\n\r\n    function approve(address spender, uint amount) public returns (bool success) {\r\n        require(msg.sender != address(0), \"ERC20: approve from the zero address\");\r\n        require(spender != address(0), \"ERC20: approve to the zero address\");\r\n\r\n        allowed[msg.sender][spender] = amount;\r\n        emit Approval(msg.sender, spender, amount);\r\n        return true;\r\n    }\r\n    \r\n    function isStakeholder(address _address) public view returns (bool, uint256) {\r\n        for (uint256 s = 0; s < stakeholders.length; s += 1){\r\n           if (_address == stakeholders[s]) return (true, s);\r\n        }\r\n        return (false, 0);\r\n    }\r\n    \r\n    function addStakeholder(address _stakeholder) public {\r\n        (bool _isStakeholder, ) = isStakeholder(_stakeholder);\r\n        if(!_isStakeholder) {\r\n            stakeholders.push(_stakeholder);\r\n        }\r\n    }\r\n    \r\n    function removeStakeholder(address _stakeholder) public {\r\n        (bool _isStakeholder, uint256 s) = isStakeholder(_stakeholder);\r\n        if(_isStakeholder) {\r\n           stakeholders[s] = stakeholders[stakeholders.length - 1];\r\n           stakeholders.pop();\r\n       }\r\n    }\r\n   \r\n    function stakeOf(address _stakeholder) public view returns (uint256) {\r\n        return stakes[_stakeholder];\r\n    }\r\n\r\n    function totalStakes() public view returns (uint256) {\r\n        uint256 _totalStakes = 0;\r\n        for (uint256 s = 0; s < stakeholders.length; s += 1) {\r\n            _totalStakes = _totalStakes.add(stakes[stakeholders[s]]);\r\n        }\r\n        return _totalStakes;\r\n    }\r\n   \r\n    function createStake(uint256 _stake) public {\r\n        _burn(msg.sender, _stake);\r\n        if(stakes[msg.sender] == 0) addStakeholder(msg.sender);\r\n        stakes[msg.sender] = stakes[msg.sender].add(_stake);\r\n    }\r\n   \r\n   function removeStake(uint256 _stake) public {\r\n        stakes[msg.sender] = stakes[msg.sender].sub(_stake);\r\n        if(stakes[msg.sender] == 0) removeStakeholder(msg.sender);\r\n        _mint(msg.sender, _stake);\r\n   }\r\n   \r\n   function rewardOf(address _stakeholder) public view returns (uint256) {\r\n        return rewards[_stakeholder];\r\n   }\r\n   \r\n   function totalRewards() public view returns (uint256) {\r\n        uint256 _totalRewards = 0;\r\n        for (uint256 s = 0; s < stakeholders.length; s += 1){\r\n            _totalRewards = _totalRewards.add(rewards[stakeholders[s]]);\r\n        }\r\n        return _totalRewards;\r\n   }\r\n   \r\n   function calculateReward(address _stakeholder) public view returns (uint256) {\r\n        return stakes[_stakeholder] / 100;\r\n   }\r\n   \r\n   function distributeRewards() public onlyOwner {\r\n        for (uint256 s = 0; s < stakeholders.length; s += 1){\r\n            address stakeholder = stakeholders[s];\r\n            uint256 reward = calculateReward(stakeholder);\r\n            rewards[stakeholder] = rewards[stakeholder].add(reward);\r\n        }\r\n   }\r\n   \r\n   function withdrawReward() public {\r\n        uint256 reward = rewards[msg.sender];\r\n        rewards[msg.sender] = 0;\r\n        _mint(msg.sender, reward);\r\n  }\r\n   \r\n   function _mint(address account, uint256 amount) internal {\r\n        require(account != address(0), \"ERC20: mint to the zero address\");\r\n        _totalSupply = _totalSupply.add(amount);\r\n        balances[account] = balances[account].add(amount);\r\n        emit Transfer(address(0), account, amount);\r\n  }\r\n  \r\n  function _burn(address account, uint256 amount) internal {\r\n        require(account != address(0), \"ERC20: burn from the zero address\");\r\n        balances[account] = balances[account].sub(amount);\r\n        _totalSupply = _totalSupply.sub(amount);\r\n        emit Transfer(account, address(0), amount);\r\n  }\r\n}   ",
  "sourcePath": "D:\\Ethereum\\Reputation-Gateway\\src\\contracts\\token\\ERC20.sol",
  "compiler": {
    "name": "solc",
    "version": "0.8.1+commit.df193b15.Emscripten.clang"
  },
  "schemaVersion": "3.4.0",
  "updatedAt": "2021-07-13T08:50:12.341Z",
  "networkType": "ethereum",
  "devdoc": {
    "kind": "dev",
    "methods": {},
    "version": 1
  },
  "userdoc": {
    "kind": "user",
    "methods": {},
    "version": 1
  }
}