{
  "contractName": "Ownership",
  "abi": [
    {
      "inputs": [],
      "stateMutability": "nonpayable",
      "type": "constructor"
    },
    {
      "anonymous": false,
      "inputs": [
        {
          "indexed": true,
          "internalType": "address",
          "name": "previousOwner",
          "type": "address"
        },
        {
          "indexed": true,
          "internalType": "address",
          "name": "newOwner",
          "type": "address"
        }
      ],
      "name": "OwnershipTransferred",
      "type": "event"
    },
    {
      "inputs": [],
      "name": "owner",
      "outputs": [
        {
          "internalType": "address",
          "name": "",
          "type": "address"
        }
      ],
      "stateMutability": "view",
      "type": "function"
    },
    {
      "inputs": [
        {
          "internalType": "address",
          "name": "_newOwner",
          "type": "address"
        }
      ],
      "name": "transferOwnership",
      "outputs": [],
      "stateMutability": "nonpayable",
      "type": "function"
    }
  ],
  "bytecode": "0x608060405234801561001057600080fd5b50336000806101000a81548173ffffffffffffffffffffffffffffffffffffffff021916908373ffffffffffffffffffffffffffffffffffffffff1602179055506102cf806100606000396000f3fe608060405234801561001057600080fd5b50600436106100365760003560e01c80638da5cb5b1461003b578063f2fde38b14610059575b600080fd5b610043610075565b6040516100509190610235565b60405180910390f35b610073600480360381019061006e91906101fd565b610099565b005b60008054906101000a900473ffffffffffffffffffffffffffffffffffffffff1681565b60008054906101000a900473ffffffffffffffffffffffffffffffffffffffff1673ffffffffffffffffffffffffffffffffffffffff163373ffffffffffffffffffffffffffffffffffffffff16146100f157600080fd5b600073ffffffffffffffffffffffffffffffffffffffff168173ffffffffffffffffffffffffffffffffffffffff16141561012b57600080fd5b8073ffffffffffffffffffffffffffffffffffffffff1660008054906101000a900473ffffffffffffffffffffffffffffffffffffffff1673ffffffffffffffffffffffffffffffffffffffff167f8be0079c531659141344cd1fd0a4f28419497f9722a3daafe3b4186f6b6457e060405160405180910390a3806000806101000a81548173ffffffffffffffffffffffffffffffffffffffff021916908373ffffffffffffffffffffffffffffffffffffffff16021790555050565b6000813590506101f781610282565b92915050565b60006020828403121561020f57600080fd5b600061021d848285016101e8565b91505092915050565b61022f81610250565b82525050565b600060208201905061024a6000830184610226565b92915050565b600061025b82610262565b9050919050565b600073ffffffffffffffffffffffffffffffffffffffff82169050919050565b61028b81610250565b811461029657600080fd5b5056fea2646970667358221220c5204e5fa6cbfcc90ce33d121636b30aab6a8380c6795dafabe8c691c9fb653564736f6c63430008010033",
  "immutableReferences": {},
  "source": "// SPDX-License-Identifier: ISC\r\npragma solidity ^0.8.1;\r\n\r\ncontract Ownership {\r\n    \r\n  address public owner;\r\n\r\n  event OwnershipTransferred(address indexed previousOwner, address indexed newOwner);\r\n\r\n  //Sets owner\r\n  constructor() {\r\n    owner = msg.sender;\r\n  }\r\n\r\n  //Only owner has permission to call the function, when function uses this modifier\r\n  modifier onlyOwner() {\r\n    require(msg.sender == owner);\r\n    _;\r\n  }\r\n\r\n  //Allows the current owner to transfer control of the contract to a newOwner.\r\n  function transferOwnership(address _newOwner) public onlyOwner {\r\n    require(_newOwner != address(0));\r\n    emit OwnershipTransferred(owner, _newOwner);\r\n    owner = _newOwner;\r\n  }\r\n\r\n}\r\n",
  "sourcePath": "D:\\Ethereum\\Reputation-Gateway\\src\\contracts\\ownership\\Ownership.sol",
  "compiler": {
    "name": "solc",
    "version": "0.8.1+commit.df193b15.Emscripten.clang"
  },
  "schemaVersion": "3.4.0",
  "updatedAt": "2021-07-13T08:50:07.325Z",
  "devdoc": {
    "kind": "dev",
    "methods": {},
    "version": 1
  },
  "userdoc": {
    "kind": "user",
    "methods": {},
    "version": 1
  }
}