{
  "contractName": "PatriciaTreeNoHash",
  "abi": [
    {
      "inputs": [
        {
          "internalType": "bytes32",
          "name": "key",
          "type": "bytes32"
        },
        {
          "internalType": "bytes",
          "name": "value",
          "type": "bytes"
        }
      ],
      "name": "insert",
      "outputs": [],
      "stateMutability": "nonpayable",
      "type": "function"
    },
    {
      "inputs": [
        {
          "internalType": "bytes32",
          "name": "key",
          "type": "bytes32"
        }
      ],
      "name": "getProof",
      "outputs": [
        {
          "internalType": "uint256",
          "name": "branchMask",
          "type": "uint256"
        },
        {
          "internalType": "bytes32[]",
          "name": "_siblings",
          "type": "bytes32[]"
        }
      ],
      "stateMutability": "view",
      "type": "function"
    },
    {
      "inputs": [
        {
          "internalType": "bytes32",
          "name": "key",
          "type": "bytes32"
        },
        {
          "internalType": "bytes",
          "name": "value",
          "type": "bytes"
        },
        {
          "internalType": "uint256",
          "name": "branchMask",
          "type": "uint256"
        },
        {
          "internalType": "bytes32[]",
          "name": "siblings",
          "type": "bytes32[]"
        }
      ],
      "name": "getImpliedRoot",
      "outputs": [
        {
          "internalType": "bytes32",
          "name": "",
          "type": "bytes32"
        }
      ],
      "stateMutability": "pure",
      "type": "function"
    },
    {
      "inputs": [],
      "name": "getRootHash",
      "outputs": [
        {
          "internalType": "bytes32",
          "name": "",
          "type": "bytes32"
        }
      ],
      "stateMutability": "view",
      "type": "function"
    },
    {
      "inputs": [],
      "name": "getRootEdge",
      "outputs": [
        {
          "components": [
            {
              "internalType": "bytes32",
              "name": "node",
              "type": "bytes32"
            },
            {
              "components": [
                {
                  "internalType": "bytes32",
                  "name": "data",
                  "type": "bytes32"
                },
                {
                  "internalType": "uint256",
                  "name": "length",
                  "type": "uint256"
                }
              ],
              "internalType": "struct Data.Label",
              "name": "label",
              "type": "tuple"
            }
          ],
          "internalType": "struct Data.Edge",
          "name": "e",
          "type": "tuple"
        }
      ],
      "stateMutability": "view",
      "type": "function"
    },
    {
      "inputs": [
        {
          "internalType": "bytes32",
          "name": "hash",
          "type": "bytes32"
        }
      ],
      "name": "getNode",
      "outputs": [
        {
          "components": [
            {
              "components": [
                {
                  "internalType": "bytes32",
                  "name": "node",
                  "type": "bytes32"
                },
                {
                  "components": [
                    {
                      "internalType": "bytes32",
                      "name": "data",
                      "type": "bytes32"
                    },
                    {
                      "internalType": "uint256",
                      "name": "length",
                      "type": "uint256"
                    }
                  ],
                  "internalType": "struct Data.Label",
                  "name": "label",
                  "type": "tuple"
                }
              ],
              "internalType": "struct Data.Edge[2]",
              "name": "children",
              "type": "tuple[2]"
            }
          ],
          "internalType": "struct Data.Node",
          "name": "n",
          "type": "tuple"
        }
      ],
      "stateMutability": "view",
      "type": "function"
    }
  ],
  "bytecode": "0x608060405234801561001057600080fd5b50612152806100206000396000f3fe608060405234801561001057600080fd5b50600436106100625760003560e01c80631b80bb3a1461006757806350c946fe146100985780635d7a8978146100c857806380759f1f146100f8578063a43914da14610116578063a4f3a60314610134575b600080fd5b610081600480360381019061007c91906116f9565b610150565b60405161008f929190611c60565b60405180910390f35b6100b260048036038101906100ad91906116f9565b610166565b6040516100bf9190611c45565b60405180910390f35b6100e260048036038101906100dd9190611776565b61017e565b6040516100ef9190611b8f565b60405180910390f35b610100610196565b60405161010d9190611b8f565b60405180910390f35b61011e6101a5565b60405161012b9190611c2a565b60405180910390f35b61014e60048036038101906101499190611722565b6101ba565b005b6000606061015d836101d4565b91509150915091565b61016e6114bc565b61017782610630565b9050919050565b600061018c858585856106de565b9050949350505050565b60006101a0610705565b905090565b6101ad6114d5565b6101b5610711565b905090565b6101d0828260006107609092919063ffffffff16565b5050565b600060606000801b60008001541415610222576040517f08c379a000000000000000000000000000000000000000000000000000000000815260040161021990611bca565b60405180910390fd5b60006040518060400160405280858152602001610100815250905060008060010160405180604001604052908160008201548152602001600182016040518060400160405290816000820154815260200160018201548152505081525050905061028a6114f8565b6000805b6001156105085761029d61151c565b6102a561151c565b6102bc86602001518861084f90919063ffffffff16565b8092508193505050856020015160200151826020015114610306577f4e487b7100000000000000000000000000000000000000000000000000000000600052600160045260246000fd5b60008160200151141561031a575050610508565b81602001518461032a9190611db6565b93508360ff6103399190611e43565b6001901b8917985060018461034e9190611db6565b9350600061035a61151c565b6103638361087d565b8092508193505050610415600060040160008a6000015181526020019081526020016000206000018360016103989190611e43565b600281106103cf577f4e487b7100000000000000000000000000000000000000000000000000000000600052603260045260246000fd5b6003020160405180604001604052908160008201548152602001600182016040518060400160405290816000820154815260200160018201548152505081525050610910565b87868061042190611f0c565b9750610100811061045b577f4e487b7100000000000000000000000000000000000000000000000000000000600052603260045260246000fd5b602002018181525050600060040160008960000151815260200190815260200160002060000182600281106104b9577f4e487b7100000000000000000000000000000000000000000000000000000000600052603260045260246000fd5b600302016040518060400160405290816000820154815260200160018201604051806040016040529081600082015481526020016001820154815250508152505097508098505050505061028e565b6000811115610626578067ffffffffffffffff811115610551577f4e487b7100000000000000000000000000000000000000000000000000000000600052604160045260246000fd5b60405190808252806020026020018201604052801561057f5781602001602082028036833780820191505090505b50955060005b8181101561062457838161010081106105c7577f4e487b7100000000000000000000000000000000000000000000000000000000600052603260045260246000fd5b6020020151878281518110610605577f4e487b7100000000000000000000000000000000000000000000000000000000600052603260045260246000fd5b602002602001018181525050808061061c90611f0c565b915050610585565b505b5050505050915091565b6106386114bc565b6000600401600083815260200190815260200160002060405180602001604052908160008201600280602002604051908101604052809291906000905b828210156106cf578382600302016040518060400160405290816000820154815260200160018201604051806040016040529081600082015481526020016001820154815250508152505081526020019060010190610675565b50505050815250509050919050565b6000806106f48686805190602001208686610958565b508091505080915050949350505050565b60008060000154905090565b6107196114d5565b600060010160405180604001604052908160008201548152602001600182016040518060400160405290816000820154815260200160018201548152505081525050905090565b60006040518060400160405280848152602001610100815250905060008280519060200120905061078f6114d5565b6000801b866000015414156107b65782816020018190525081816000018181525050610805565b6108028687600101604051806040016040529081600082015481526020016001820160405180604001604052908160008201548152602001600182015481525050815250508585610bc0565b90505b61080e81610910565b866000018190555080866001016000820151816000015560208201518160010160008201518160000155602082015181600101555050905050505050505050565b61085761151c565b61085f61151c565b6108728461086d8686610f18565b610fab565b915091509250929050565b600061088761151c565b60008360200151116108ce576040517f08c379a00000000000000000000000000000000000000000000000000000000081526004016108c590611c0a565b60405180910390fd5b60ff8360000151901c60001c604051806040016040528060018660000151901b8152602001600186602001516109049190611e43565b81525091509150915091565b6000816000015182602001516020015183602001516000015160405160200161093b93929190611b52565b604051602081830303815290604052805190602001209050919050565b6000610962611539565b6000604051806040016040528088815260200161010081525090506109856114d5565b86816000018181525050610997611539565b60005b8651811015610b3a5760006109ae89611082565b60ff169050806001901b19891698506109dc8160ff6109cd9190611e43565b86610fab90919063ffffffff16565b85602001819052819650505060006109f7856020015161087d565b866020018190528192505050610a0c85610910565b848260028110610a45577f4e487b7100000000000000000000000000000000000000000000000000000000600052603260045260246000fd5b602002018181525050886001848b51610a5e9190611e43565b610a689190611e43565b81518110610a9f577f4e487b7100000000000000000000000000000000000000000000000000000000600052603260045260246000fd5b602002602001015184826001610ab59190611e43565b60028110610aec577f4e487b7100000000000000000000000000000000000000000000000000000000600052603260045260246000fd5b60200201818152505083604051602001610b069190611b0b565b6040516020818303038152906040528051906020012085600001818152505050508080610b3290611f0c565b91505061099a565b506000871415610b5257828260200181905250610ba6565b6000610b5d88611082565b60ff169050610b818160ff610b729190611e43565b85610fab90919063ffffffff16565b846020018190528195505050610b9a836020015161087d565b90508360200181905250505b610baf82610910565b819450945050505094509492505050565b610bc86114d5565b83602001516020015183602001511015610c0b577f4e487b7100000000000000000000000000000000000000000000000000000000600052600160045260246000fd5b610c1361151c565b610c1b61151c565b610c2985876020015161084f565b80925081935050506000610c3b61151c565b60008084602001511415610c5157869050610ef4565b886020015160200151856020015110610deb5760008a60040160008b60000151815260200190815260200160002060405180602001604052908160008201600280602002604051908101604052809291906000905b82821015610d00578382600302016040518060400160405290816000820154815260200160018201604051806040016040529081600082015481526020016001820154815250508152505081526020019060010190610ca6565b50505050815250509050610d138561087d565b8094508195505050610d688b82600001518660028110610d5c577f4e487b7100000000000000000000000000000000000000000000000000000000600052603260045260246000fd5b6020020151858b610bc0565b81600001518560028110610da5577f4e487b7100000000000000000000000000000000000000000000000000000000600052603260045260246000fd5b60200201819052508a60040160008b60000151815260200190815260200160002060008082016000610dd7919061155b565b5050610de38b8261112a565b915050610ef3565b610df48461087d565b8093508194505050610e046114bc565b60405180604001604052808981526020018481525081600001518560028110610e56577f4e487b7100000000000000000000000000000000000000000000000000000000600052603260045260246000fd5b602002018190525060405180604001604052808b600001518152602001610e918c6020015160018a60200151610e8c9190611db6565b6112ca565b8152508160000151856001610ea69190611e43565b60028110610edd577f4e487b7100000000000000000000000000000000000000000000000000000000600052603260045260246000fd5b6020020181905250610eef8b8261112a565b9150505b5b60405180604001604052808281526020018681525095505050505050949350505050565b6000808260200151846020015110610f34578260200151610f3a565b83602001515b90506000811415610f4f576000915050610fa5565b600081610100610f5f9190611e43565b600019901b846000015186600001511860001c1690506000811415610f88578192505050610fa5565b610f9181611349565b60ff610f9d9190611e77565b60ff16925050505b92915050565b610fb361151c565b610fbb61151c565b83602001518311158015610fd157506101008311155b611004577f4e487b7100000000000000000000000000000000000000000000000000000000600052600160045260246000fd5b828260200181815250506000831415611029576000801b826000018181525050611051565b8260ff6110369190611e43565b600119901b846000015160001c1660001b8260000181815250505b8284602001516110619190611e43565b816020018181525050828460000151901b8160000181815250509250929050565b6000808214156110c7576040517f08c379a00000000000000000000000000000000000000000000000000000000081526004016110be90611baa565b60405180910390fd5b60008290506000608090505b60018160ff161061112357600060018260ff166001901b6110f49190611e43565b831614156111145780836111089190611e0c565b92508060ff1682901c91505b60018160ff16901c90506110d3565b5050919050565b600080611136836113f6565b90508260000151600060028110611176577f4e487b7100000000000000000000000000000000000000000000000000000000600052603260045260246000fd5b60200201518460040160008381526020019081526020016000206000016000600281106111cc577f4e487b7100000000000000000000000000000000000000000000000000000000600052603260045260246000fd5b600302016000820151816000015560208201518160010160008201518160000155602082015181600101555050905050826000015160016002811061123a577f4e487b7100000000000000000000000000000000000000000000000000000000600052603260045260246000fd5b6020020151846004016000838152602001908152602001600020600001600160028110611290577f4e487b7100000000000000000000000000000000000000000000000000000000600052603260045260246000fd5b6003020160008201518160000155602082015181600101600082015181600001556020820151816001015550509050508091505092915050565b6112d261151c565b8260200151821115611319576040517f08c379a000000000000000000000000000000000000000000000000000000000815260040161131090611bea565b60405180910390fd5b8183602001516113299190611e43565b816020018181525050818360000151901b81600001818152505092915050565b60008082141561138e576040517f08c379a000000000000000000000000000000000000000000000000000000000815260040161138590611baa565b60405180910390fd5b60008290506000608090505b60018160ff16106113ef5760008160ff1660018360ff166001901b6113bf9190611e43565b901b8316146113e05780836113d49190611e0c565b92508060ff1682901c91505b60018160ff16901c905061139a565b5050919050565b60006114438260000151600060028110611439577f4e487b7100000000000000000000000000000000000000000000000000000000600052603260045260246000fd5b6020020151610910565b61148e8360000151600160028110611484577f4e487b7100000000000000000000000000000000000000000000000000000000600052603260045260246000fd5b6020020151610910565b60405160200161149f929190611b26565b604051602081830303815290604052805190602001209050919050565b60405180602001604052806114cf6115a4565b81525090565b6040518060400160405280600080191681526020016114f261151c565b81525090565b60405180612000016040528061010090602082028036833780820191505090505090565b604051806040016040528060008019168152602001600081525090565b6040518060400160405280600290602082028036833780820191505090505090565b5060008082016000905560018201600080820160009055600182016000905550505060030160008082016000905560018201600080820160009055600182016000905550505050565b60405180604001604052806002905b6115bb6114d5565b8152602001906001900390816115b35790505090565b60006115e46115df84611cb5565b611c90565b9050808382526020820190508285602086028201111561160357600080fd5b60005b85811015611633578161161988826116a5565b845260208401935060208301925050600181019050611606565b5050509392505050565b600061165061164b84611ce1565b611c90565b90508281526020810184848401111561166857600080fd5b611673848285611ecc565b509392505050565b600082601f83011261168c57600080fd5b813561169c8482602086016115d1565b91505092915050565b6000813590506116b4816120ee565b92915050565b600082601f8301126116cb57600080fd5b81356116db84826020860161163d565b91505092915050565b6000813590506116f381612105565b92915050565b60006020828403121561170b57600080fd5b6000611719848285016116a5565b91505092915050565b6000806040838503121561173557600080fd5b6000611743858286016116a5565b925050602083013567ffffffffffffffff81111561176057600080fd5b61176c858286016116ba565b9150509250929050565b6000806000806080858703121561178c57600080fd5b600061179a878288016116a5565b945050602085013567ffffffffffffffff8111156117b757600080fd5b6117c3878288016116ba565b93505060406117d4878288016116e4565b925050606085013567ffffffffffffffff8111156117f157600080fd5b6117fd8782880161167b565b91505092959194509250565b6000611815838361195d565b60208301905092915050565b600061182d838361197b565b60208301905092915050565b60006118458383611a2d565b60608301905092915050565b61185a81611d36565b6118648184611d7e565b925061186f82611d12565b8060005b838110156118a05781516118878782611821565b965061189283611d57565b925050600181019050611873565b505050505050565b60006118b382611d41565b6118bd8185611d89565b93506118c883611d1c565b8060005b838110156118f95781516118e08882611809565b97506118eb83611d64565b9250506001810190506118cc565b5085935050505092915050565b61190f81611d4c565b6119198184611d9a565b925061192482611d2c565b8060005b8381101561195557815161193c8782611839565b965061194783611d71565b925050600181019050611928565b505050505050565b61196681611eab565b82525050565b61197581611eab565b82525050565b61198481611eab565b82525050565b61199b61199682611eab565b611f55565b82525050565b60006119ae601e83611da5565b91506119b982611fd8565b602082019050919050565b60006119d1602383611da5565b91506119dc82612001565b604082019050919050565b60006119f4602c83611da5565b91506119ff82612050565b604082019050919050565b6000611a17602583611da5565b9150611a228261209f565b604082019050919050565b606082016000820151611a43600085018261195d565b506020820151611a566020850182611a8b565b50505050565b606082016000820151611a72600085018261195d565b506020820151611a856020850182611a8b565b50505050565b604082016000820151611aa1600085018261195d565b506020820151611ab46020850182611ad6565b50505050565b60c082016000820151611ad06000850182611906565b50505050565b611adf81611eb5565b82525050565b611aee81611eb5565b82525050565b611b05611b0082611eb5565b611f5f565b82525050565b6000611b178284611851565b60408201915081905092915050565b6000611b32828561198a565b602082019150611b42828461198a565b6020820191508190509392505050565b6000611b5e828661198a565b602082019150611b6e8285611af4565b602082019150611b7e828461198a565b602082019150819050949350505050565b6000602082019050611ba4600083018461196c565b92915050565b60006020820190508181036000830152611bc3816119a1565b9050919050565b60006020820190508181036000830152611be3816119c4565b9050919050565b60006020820190508181036000830152611c03816119e7565b9050919050565b60006020820190508181036000830152611c2381611a0a565b9050919050565b6000606082019050611c3f6000830184611a5c565b92915050565b600060c082019050611c5a6000830184611aba565b92915050565b6000604082019050611c756000830185611ae5565b8181036020830152611c8781846118a8565b90509392505050565b6000611c9a611cab565b9050611ca68282611edb565b919050565b6000604051905090565b600067ffffffffffffffff821115611cd057611ccf611f98565b5b602082029050602081019050919050565b600067ffffffffffffffff821115611cfc57611cfb611f98565b5b611d0582611fc7565b9050602081019050919050565b6000819050919050565b6000819050602082019050919050565b6000819050919050565b600060029050919050565b600081519050919050565b600060029050919050565b6000602082019050919050565b6000602082019050919050565b6000602082019050919050565b600081905092915050565b600082825260208201905092915050565b600081905092915050565b600082825260208201905092915050565b6000611dc182611eb5565b9150611dcc83611eb5565b9250827fffffffffffffffffffffffffffffffffffffffffffffffffffffffffffffffff03821115611e0157611e00611f69565b5b828201905092915050565b6000611e1782611ebf565b9150611e2283611ebf565b92508260ff03821115611e3857611e37611f69565b5b828201905092915050565b6000611e4e82611eb5565b9150611e5983611eb5565b925082821015611e6c57611e6b611f69565b5b828203905092915050565b6000611e8282611ebf565b9150611e8d83611ebf565b925082821015611ea057611e9f611f69565b5b828203905092915050565b6000819050919050565b6000819050919050565b600060ff82169050919050565b82818337600083830152505050565b611ee482611fc7565b810181811067ffffffffffffffff82111715611f0357611f02611f98565b5b80604052505050565b6000611f1782611eb5565b91507fffffffffffffffffffffffffffffffffffffffffffffffffffffffffffffffff821415611f4a57611f49611f69565b5b600182019050919050565b6000819050919050565b6000819050919050565b7f4e487b7100000000000000000000000000000000000000000000000000000000600052601160045260246000fd5b7f4e487b7100000000000000000000000000000000000000000000000000000000600052604160045260246000fd5b6000601f19601f8301169050919050565b7f636f6c6f6e792d70617472696369612d747265652d7a65726f2d73656c660000600082015250565b7f636f6c6f6e792d70617472696369612d747265652d7a65726f2d747265652d7260008201527f6f6f740000000000000000000000000000000000000000000000000000000000602082015250565b7f636f6c6f6e792d70617472696369612d747265652d7072656669782d6c6f6e6760008201527f65722d7468616e2d73656c660000000000000000000000000000000000000000602082015250565b7f636f6c6f6e792d70617472696369612d747265652d7a65726f2d73656c662d6c60008201527f656e677468000000000000000000000000000000000000000000000000000000602082015250565b6120f781611eab565b811461210257600080fd5b50565b61210e81611eb5565b811461211957600080fd5b5056fea2646970667358221220737f2a1cf5779b3c727a6c065d35905f2675a0c5a634be4a582026852df75dec64736f6c63430008010033",
  "immutableReferences": {},
  "source": "// SPDX-License-Identifier: ISC\r\n\r\npragma solidity 0.8.1;\r\n\r\nimport \"./PatriciaTreeBase.sol\";\r\nimport \"./IPatriciaTreeNoHash.sol\";\r\n\r\n\r\n/// @title Patricia tree implementation\r\n/// @notice More info at: https://github.com/chriseth/patricia-trie\r\ncontract PatriciaTreeNoHash is IPatriciaTreeNoHash, PatriciaTreeBase {\r\n\r\n  using Data for Data.Tree;\r\n  using Data for Data.Edge;\r\n  using Data for Data.Label;\r\n  using Bits for uint;\r\n\r\n  function insert(bytes32 key, bytes memory value) public override {\r\n    tree.insert(key, value);\r\n  }\r\n\r\n  function getProof(bytes32 key) public view override returns (uint branchMask, bytes32[] memory _siblings) {\r\n    return getProofFunctionality(key);\r\n  }\r\n\r\n  function getImpliedRoot(bytes32 key, bytes memory value, uint branchMask, bytes32[] memory siblings) public\r\n  pure override returns (bytes32)\r\n  {\r\n    return getImpliedRootNoHashKey(key, value, branchMask, siblings);\r\n  }\r\n\r\n  function getRootHash() public view override(IPatriciaTreeBase, PatriciaTreeBase) returns (bytes32) {\r\n    return super.getRootHash();\r\n  }\r\n\r\n  function getRootEdge() public view override(IPatriciaTreeBase, PatriciaTreeBase) returns (Data.Edge memory e) {\r\n    return super.getRootEdge();\r\n  }\r\n\r\n  function getNode(bytes32 hash) public view override(IPatriciaTreeBase, PatriciaTreeBase) returns (Data.Node memory n) {\r\n    return super.getNode(hash);\r\n  }\r\n}",
  "sourcePath": "D:/Ethereum/Reputation-Gateway/src/contracts/patricia tree/PatriciaTreeNoHash.sol",
  "compiler": {
    "name": "solc",
    "version": "0.8.1+commit.df193b15.Emscripten.clang"
  },
  "schemaVersion": "3.4.0",
  "updatedAt": "2021-07-13T08:50:07.365Z",
  "devdoc": {
    "kind": "dev",
    "methods": {
      "getImpliedRoot(bytes32,bytes,uint256,bytes32[])": {
        "returns": {
          "_0": "The calculated hash"
        }
      },
      "getProof(bytes32)": {
        "returns": {
          "_siblings": "Hashes of sibling edges",
          "branchMask": "Bitmask with high bits at the positions in the `key` where we have branch nodes (bit in key denotes direction)"
        }
      }
    },
    "title": "Patricia tree implementation",
    "version": 1
  },
  "userdoc": {
    "kind": "user",
    "methods": {
      "getImpliedRoot(bytes32,bytes,uint256,bytes32[])": {
        "notice": "Calculates and returns a root hash for the `key`, `value`, `branchMask` and `siblings`"
      },
      "getProof(bytes32)": {
        "notice": "Returns the Merkle-proof for the given `key`"
      },
      "insert(bytes32,bytes)": {
        "notice": "Insert the `key`/`value`in the appropriate place in the tree"
      }
    },
    "notice": "More info at: https://github.com/chriseth/patricia-trie",
    "version": 1
  }
}