{
  "contractName": "PatriciaTree",
  "abi": [
    {
      "inputs": [
        {
          "internalType": "bytes",
          "name": "key",
          "type": "bytes"
        },
        {
          "internalType": "bytes",
          "name": "value",
          "type": "bytes"
        }
      ],
      "name": "insert",
      "outputs": [],
      "stateMutability": "nonpayable",
      "type": "function"
    },
    {
      "inputs": [
        {
          "internalType": "bytes",
          "name": "key",
          "type": "bytes"
        }
      ],
      "name": "getProof",
      "outputs": [
        {
          "internalType": "uint256",
          "name": "branchMask",
          "type": "uint256"
        },
        {
          "internalType": "bytes32[]",
          "name": "_siblings",
          "type": "bytes32[]"
        }
      ],
      "stateMutability": "view",
      "type": "function"
    },
    {
      "inputs": [
        {
          "internalType": "bytes",
          "name": "key",
          "type": "bytes"
        },
        {
          "internalType": "bytes",
          "name": "value",
          "type": "bytes"
        },
        {
          "internalType": "uint256",
          "name": "branchMask",
          "type": "uint256"
        },
        {
          "internalType": "bytes32[]",
          "name": "siblings",
          "type": "bytes32[]"
        }
      ],
      "name": "getImpliedRoot",
      "outputs": [
        {
          "internalType": "bytes32",
          "name": "",
          "type": "bytes32"
        }
      ],
      "stateMutability": "pure",
      "type": "function"
    },
    {
      "inputs": [],
      "name": "getRootHash",
      "outputs": [
        {
          "internalType": "bytes32",
          "name": "",
          "type": "bytes32"
        }
      ],
      "stateMutability": "view",
      "type": "function"
    },
    {
      "inputs": [],
      "name": "getRootEdge",
      "outputs": [
        {
          "components": [
            {
              "internalType": "bytes32",
              "name": "node",
              "type": "bytes32"
            },
            {
              "components": [
                {
                  "internalType": "bytes32",
                  "name": "data",
                  "type": "bytes32"
                },
                {
                  "internalType": "uint256",
                  "name": "length",
                  "type": "uint256"
                }
              ],
              "internalType": "struct Data.Label",
              "name": "label",
              "type": "tuple"
            }
          ],
          "internalType": "struct Data.Edge",
          "name": "e",
          "type": "tuple"
        }
      ],
      "stateMutability": "view",
      "type": "function"
    },
    {
      "inputs": [
        {
          "internalType": "bytes32",
          "name": "hash",
          "type": "bytes32"
        }
      ],
      "name": "getNode",
      "outputs": [
        {
          "components": [
            {
              "components": [
                {
                  "internalType": "bytes32",
                  "name": "node",
                  "type": "bytes32"
                },
                {
                  "components": [
                    {
                      "internalType": "bytes32",
                      "name": "data",
                      "type": "bytes32"
                    },
                    {
                      "internalType": "uint256",
                      "name": "length",
                      "type": "uint256"
                    }
                  ],
                  "internalType": "struct Data.Label",
                  "name": "label",
                  "type": "tuple"
                }
              ],
              "internalType": "struct Data.Edge[2]",
              "name": "children",
              "type": "tuple[2]"
            }
          ],
          "internalType": "struct Data.Node",
          "name": "n",
          "type": "tuple"
        }
      ],
      "stateMutability": "view",
      "type": "function"
    }
  ],
  "bytecode": "0x608060405234801561001057600080fd5b506121d8806100206000396000f3fe608060405234801561001057600080fd5b50600436106100625760003560e01c806320ba5b601461006757806350c946fe14610083578063693ac4fb146100b35780637f8b9478146100e457806380759f1f14610114578063a43914da14610132575b600080fd5b610081600480360381019061007c9190611778565b610150565b005b61009d6004803603810190610098919061170e565b610171565b6040516100aa9190611ccb565b60405180910390f35b6100cd60048036038101906100c89190611737565b610189565b6040516100db929190611ce6565b60405180910390f35b6100fe60048036038101906100f991906117e4565b6101a6565b60405161010b9190611c15565b60405180910390f35b61011c6101be565b6040516101299190611c15565b60405180910390f35b61013a6101cd565b6040516101479190611cb0565b60405180910390f35b61016d82805190602001208260006101e29092919063ffffffff16565b5050565b6101796114d1565b610182826102d1565b9050919050565b6000606061019d838051906020012061037f565b91509150915091565b60006101b4858585856107db565b9050949350505050565b60006101c8610809565b905090565b6101d56114ea565b6101dd610815565b905090565b6000604051806040016040528084815260200161010081525090506000828051906020012090506102116114ea565b6000801b866000015414156102385782816020018190525081816000018181525050610287565b6102848687600101604051806040016040529081600082015481526020016001820160405180604001604052908160008201548152602001600182015481525050815250508585610864565b90505b61029081610bbc565b866000018190555080866001016000820151816000015560208201518160010160008201518160000155602082015181600101555050905050505050505050565b6102d96114d1565b6000600401600083815260200190815260200160002060405180602001604052908160008201600280602002604051908101604052809291906000905b82821015610370578382600302016040518060400160405290816000820154815260200160018201604051806040016040529081600082015481526020016001820154815250508152505081526020019060010190610316565b50505050815250509050919050565b600060606000801b600080015414156103cd576040517f08c379a00000000000000000000000000000000000000000000000000000000081526004016103c490611c50565b60405180910390fd5b60006040518060400160405280858152602001610100815250905060008060010160405180604001604052908160008201548152602001600182016040518060400160405290816000820154815260200160018201548152505081525050905061043561150d565b6000805b6001156106b357610448611531565b610450611531565b610467866020015188610c0490919063ffffffff16565b80925081935050508560200151602001518260200151146104b1577f4e487b7100000000000000000000000000000000000000000000000000000000600052600160045260246000fd5b6000816020015114156104c55750506106b3565b8160200151846104d59190611e3c565b93508360ff6104e49190611ec9565b6001901b891798506001846104f99190611e3c565b93506000610505611531565b61050e83610c32565b80925081935050506105c0600060040160008a6000015181526020019081526020016000206000018360016105439190611ec9565b6002811061057a577f4e487b7100000000000000000000000000000000000000000000000000000000600052603260045260246000fd5b6003020160405180604001604052908160008201548152602001600182016040518060400160405290816000820154815260200160018201548152505081525050610bbc565b8786806105cc90611f92565b97506101008110610606577f4e487b7100000000000000000000000000000000000000000000000000000000600052603260045260246000fd5b60200201818152505060006004016000896000015181526020019081526020016000206000018260028110610664577f4e487b7100000000000000000000000000000000000000000000000000000000600052603260045260246000fd5b6003020160405180604001604052908160008201548152602001600182016040518060400160405290816000820154815260200160018201548152505081525050975080985050505050610439565b60008111156107d1578067ffffffffffffffff8111156106fc577f4e487b7100000000000000000000000000000000000000000000000000000000600052604160045260246000fd5b60405190808252806020026020018201604052801561072a5781602001602082028036833780820191505090505b50955060005b818110156107cf5783816101008110610772577f4e487b7100000000000000000000000000000000000000000000000000000000600052603260045260246000fd5b60200201518782815181106107b0577f4e487b7100000000000000000000000000000000000000000000000000000000600052603260045260246000fd5b60200260200101818152505080806107c790611f92565b915050610730565b505b5050505050915091565b6000806107f8868051906020012086805190602001208686610cc5565b508091505080915050949350505050565b60008060000154905090565b61081d6114ea565b600060010160405180604001604052908160008201548152602001600182016040518060400160405290816000820154815260200160018201548152505081525050905090565b61086c6114ea565b836020015160200151836020015110156108af577f4e487b7100000000000000000000000000000000000000000000000000000000600052600160045260246000fd5b6108b7611531565b6108bf611531565b6108cd858760200151610c04565b809250819350505060006108df611531565b600080846020015114156108f557869050610b98565b886020015160200151856020015110610a8f5760008a60040160008b60000151815260200190815260200160002060405180602001604052908160008201600280602002604051908101604052809291906000905b828210156109a457838260030201604051806040016040529081600082015481526020016001820160405180604001604052908160008201548152602001600182015481525050815250508152602001906001019061094a565b505050508152505090506109b785610c32565b8094508195505050610a0c8b82600001518660028110610a00577f4e487b7100000000000000000000000000000000000000000000000000000000600052603260045260246000fd5b6020020151858b610864565b81600001518560028110610a49577f4e487b7100000000000000000000000000000000000000000000000000000000600052603260045260246000fd5b60200201819052508a60040160008b60000151815260200190815260200160002060008082016000610a7b919061154e565b5050610a878b82610f2d565b915050610b97565b610a9884610c32565b8093508194505050610aa86114d1565b60405180604001604052808981526020018481525081600001518560028110610afa577f4e487b7100000000000000000000000000000000000000000000000000000000600052603260045260246000fd5b602002018190525060405180604001604052808b600001518152602001610b358c6020015160018a60200151610b309190611e3c565b6110cd565b8152508160000151856001610b4a9190611ec9565b60028110610b81577f4e487b7100000000000000000000000000000000000000000000000000000000600052603260045260246000fd5b6020020181905250610b938b82610f2d565b9150505b5b60405180604001604052808281526020018681525095505050505050949350505050565b60008160000151826020015160200151836020015160000151604051602001610be793929190611bd8565b604051602081830303815290604052805190602001209050919050565b610c0c611531565b610c14611531565b610c2784610c22868661114c565b6111df565b915091509250929050565b6000610c3c611531565b6000836020015111610c83576040517f08c379a0000000000000000000000000000000000000000000000000000000008152600401610c7a90611c90565b60405180910390fd5b60ff8360000151901c60001c604051806040016040528060018660000151901b815260200160018660200151610cb99190611ec9565b81525091509150915091565b6000610ccf611597565b600060405180604001604052808881526020016101008152509050610cf26114ea565b86816000018181525050610d04611597565b60005b8651811015610ea7576000610d1b896112b6565b60ff169050806001901b1989169850610d498160ff610d3a9190611ec9565b866111df90919063ffffffff16565b8560200181905281965050506000610d648560200151610c32565b866020018190528192505050610d7985610bbc565b848260028110610db2577f4e487b7100000000000000000000000000000000000000000000000000000000600052603260045260246000fd5b602002018181525050886001848b51610dcb9190611ec9565b610dd59190611ec9565b81518110610e0c577f4e487b7100000000000000000000000000000000000000000000000000000000600052603260045260246000fd5b602002602001015184826001610e229190611ec9565b60028110610e59577f4e487b7100000000000000000000000000000000000000000000000000000000600052603260045260246000fd5b60200201818152505083604051602001610e739190611b91565b6040516020818303038152906040528051906020012085600001818152505050508080610e9f90611f92565b915050610d07565b506000871415610ebf57828260200181905250610f13565b6000610eca886112b6565b60ff169050610eee8160ff610edf9190611ec9565b856111df90919063ffffffff16565b846020018190528195505050610f078360200151610c32565b90508360200181905250505b610f1c82610bbc565b819450945050505094509492505050565b600080610f398361135e565b90508260000151600060028110610f79577f4e487b7100000000000000000000000000000000000000000000000000000000600052603260045260246000fd5b6020020151846004016000838152602001908152602001600020600001600060028110610fcf577f4e487b7100000000000000000000000000000000000000000000000000000000600052603260045260246000fd5b600302016000820151816000015560208201518160010160008201518160000155602082015181600101555050905050826000015160016002811061103d577f4e487b7100000000000000000000000000000000000000000000000000000000600052603260045260246000fd5b6020020151846004016000838152602001908152602001600020600001600160028110611093577f4e487b7100000000000000000000000000000000000000000000000000000000600052603260045260246000fd5b6003020160008201518160000155602082015181600101600082015181600001556020820151816001015550509050508091505092915050565b6110d5611531565b826020015182111561111c576040517f08c379a000000000000000000000000000000000000000000000000000000000815260040161111390611c70565b60405180910390fd5b81836020015161112c9190611ec9565b816020018181525050818360000151901b81600001818152505092915050565b600080826020015184602001511061116857826020015161116e565b83602001515b905060008114156111835760009150506111d9565b6000816101006111939190611ec9565b600019901b846000015186600001511860001c16905060008114156111bc5781925050506111d9565b6111c581611424565b60ff6111d19190611efd565b60ff16925050505b92915050565b6111e7611531565b6111ef611531565b8360200151831115801561120557506101008311155b611238577f4e487b7100000000000000000000000000000000000000000000000000000000600052600160045260246000fd5b82826020018181525050600083141561125d576000801b826000018181525050611285565b8260ff61126a9190611ec9565b600119901b846000015160001c1660001b8260000181815250505b8284602001516112959190611ec9565b816020018181525050828460000151901b8160000181815250509250929050565b6000808214156112fb576040517f08c379a00000000000000000000000000000000000000000000000000000000081526004016112f290611c30565b60405180910390fd5b60008290506000608090505b60018160ff161061135757600060018260ff166001901b6113289190611ec9565b8316141561134857808361133c9190611e92565b92508060ff1682901c91505b60018160ff16901c9050611307565b5050919050565b60006113ab82600001516000600281106113a1577f4e487b7100000000000000000000000000000000000000000000000000000000600052603260045260246000fd5b6020020151610bbc565b6113f683600001516001600281106113ec577f4e487b7100000000000000000000000000000000000000000000000000000000600052603260045260246000fd5b6020020151610bbc565b604051602001611407929190611bac565b604051602081830303815290604052805190602001209050919050565b600080821415611469576040517f08c379a000000000000000000000000000000000000000000000000000000000815260040161146090611c30565b60405180910390fd5b60008290506000608090505b60018160ff16106114ca5760008160ff1660018360ff166001901b61149a9190611ec9565b901b8316146114bb5780836114af9190611e92565b92508060ff1682901c91505b60018160ff16901c9050611475565b5050919050565b60405180602001604052806114e46115b9565b81525090565b604051806040016040528060008019168152602001611507611531565b81525090565b60405180612000016040528061010090602082028036833780820191505090505090565b604051806040016040528060008019168152602001600081525090565b5060008082016000905560018201600080820160009055600182016000905550505060030160008082016000905560018201600080820160009055600182016000905550505050565b6040518060400160405280600290602082028036833780820191505090505090565b60405180604001604052806002905b6115d06114ea565b8152602001906001900390816115c85790505090565b60006115f96115f484611d3b565b611d16565b9050808382526020820190508285602086028201111561161857600080fd5b60005b85811015611648578161162e88826116ba565b84526020840193506020830192505060018101905061161b565b5050509392505050565b600061166561166084611d67565b611d16565b90508281526020810184848401111561167d57600080fd5b611688848285611f52565b509392505050565b600082601f8301126116a157600080fd5b81356116b18482602086016115e6565b91505092915050565b6000813590506116c981612174565b92915050565b600082601f8301126116e057600080fd5b81356116f0848260208601611652565b91505092915050565b6000813590506117088161218b565b92915050565b60006020828403121561172057600080fd5b600061172e848285016116ba565b91505092915050565b60006020828403121561174957600080fd5b600082013567ffffffffffffffff81111561176357600080fd5b61176f848285016116cf565b91505092915050565b6000806040838503121561178b57600080fd5b600083013567ffffffffffffffff8111156117a557600080fd5b6117b1858286016116cf565b925050602083013567ffffffffffffffff8111156117ce57600080fd5b6117da858286016116cf565b9150509250929050565b600080600080608085870312156117fa57600080fd5b600085013567ffffffffffffffff81111561181457600080fd5b611820878288016116cf565b945050602085013567ffffffffffffffff81111561183d57600080fd5b611849878288016116cf565b935050604061185a878288016116f9565b925050606085013567ffffffffffffffff81111561187757600080fd5b61188387828801611690565b91505092959194509250565b600061189b83836119e3565b60208301905092915050565b60006118b38383611a01565b60208301905092915050565b60006118cb8383611ab3565b60608301905092915050565b6118e081611dbc565b6118ea8184611e04565b92506118f582611d98565b8060005b8381101561192657815161190d87826118a7565b965061191883611ddd565b9250506001810190506118f9565b505050505050565b600061193982611dc7565b6119438185611e0f565b935061194e83611da2565b8060005b8381101561197f578151611966888261188f565b975061197183611dea565b925050600181019050611952565b5085935050505092915050565b61199581611dd2565b61199f8184611e20565b92506119aa82611db2565b8060005b838110156119db5781516119c287826118bf565b96506119cd83611df7565b9250506001810190506119ae565b505050505050565b6119ec81611f31565b82525050565b6119fb81611f31565b82525050565b611a0a81611f31565b82525050565b611a21611a1c82611f31565b611fdb565b82525050565b6000611a34601e83611e2b565b9150611a3f8261205e565b602082019050919050565b6000611a57602383611e2b565b9150611a6282612087565b604082019050919050565b6000611a7a602c83611e2b565b9150611a85826120d6565b604082019050919050565b6000611a9d602583611e2b565b9150611aa882612125565b604082019050919050565b606082016000820151611ac960008501826119e3565b506020820151611adc6020850182611b11565b50505050565b606082016000820151611af860008501826119e3565b506020820151611b0b6020850182611b11565b50505050565b604082016000820151611b2760008501826119e3565b506020820151611b3a6020850182611b5c565b50505050565b60c082016000820151611b56600085018261198c565b50505050565b611b6581611f3b565b82525050565b611b7481611f3b565b82525050565b611b8b611b8682611f3b565b611fe5565b82525050565b6000611b9d82846118d7565b60408201915081905092915050565b6000611bb88285611a10565b602082019150611bc88284611a10565b6020820191508190509392505050565b6000611be48286611a10565b602082019150611bf48285611b7a565b602082019150611c048284611a10565b602082019150819050949350505050565b6000602082019050611c2a60008301846119f2565b92915050565b60006020820190508181036000830152611c4981611a27565b9050919050565b60006020820190508181036000830152611c6981611a4a565b9050919050565b60006020820190508181036000830152611c8981611a6d565b9050919050565b60006020820190508181036000830152611ca981611a90565b9050919050565b6000606082019050611cc56000830184611ae2565b92915050565b600060c082019050611ce06000830184611b40565b92915050565b6000604082019050611cfb6000830185611b6b565b8181036020830152611d0d818461192e565b90509392505050565b6000611d20611d31565b9050611d2c8282611f61565b919050565b6000604051905090565b600067ffffffffffffffff821115611d5657611d5561201e565b5b602082029050602081019050919050565b600067ffffffffffffffff821115611d8257611d8161201e565b5b611d8b8261204d565b9050602081019050919050565b6000819050919050565b6000819050602082019050919050565b6000819050919050565b600060029050919050565b600081519050919050565b600060029050919050565b6000602082019050919050565b6000602082019050919050565b6000602082019050919050565b600081905092915050565b600082825260208201905092915050565b600081905092915050565b600082825260208201905092915050565b6000611e4782611f3b565b9150611e5283611f3b565b9250827fffffffffffffffffffffffffffffffffffffffffffffffffffffffffffffffff03821115611e8757611e86611fef565b5b828201905092915050565b6000611e9d82611f45565b9150611ea883611f45565b92508260ff03821115611ebe57611ebd611fef565b5b828201905092915050565b6000611ed482611f3b565b9150611edf83611f3b565b925082821015611ef257611ef1611fef565b5b828203905092915050565b6000611f0882611f45565b9150611f1383611f45565b925082821015611f2657611f25611fef565b5b828203905092915050565b6000819050919050565b6000819050919050565b600060ff82169050919050565b82818337600083830152505050565b611f6a8261204d565b810181811067ffffffffffffffff82111715611f8957611f8861201e565b5b80604052505050565b6000611f9d82611f3b565b91507fffffffffffffffffffffffffffffffffffffffffffffffffffffffffffffffff821415611fd057611fcf611fef565b5b600182019050919050565b6000819050919050565b6000819050919050565b7f4e487b7100000000000000000000000000000000000000000000000000000000600052601160045260246000fd5b7f4e487b7100000000000000000000000000000000000000000000000000000000600052604160045260246000fd5b6000601f19601f8301169050919050565b7f636f6c6f6e792d70617472696369612d747265652d7a65726f2d73656c660000600082015250565b7f636f6c6f6e792d70617472696369612d747265652d7a65726f2d747265652d7260008201527f6f6f740000000000000000000000000000000000000000000000000000000000602082015250565b7f636f6c6f6e792d70617472696369612d747265652d7072656669782d6c6f6e6760008201527f65722d7468616e2d73656c660000000000000000000000000000000000000000602082015250565b7f636f6c6f6e792d70617472696369612d747265652d7a65726f2d73656c662d6c60008201527f656e677468000000000000000000000000000000000000000000000000000000602082015250565b61217d81611f31565b811461218857600080fd5b50565b61219481611f3b565b811461219f57600080fd5b5056fea2646970667358221220683539240582d5b0289099574d33070c1714012d2cfd3125663dcf3abd9dc52364736f6c63430008010033",
  "immutableReferences": {},
  "source": "// SPDX-License-Identifier: ISC\r\n\r\npragma solidity 0.8.1;\r\n\r\nimport \"./PatriciaTreeBase.sol\";\r\nimport \"./IPatriciaTree.sol\";\r\n\r\n\r\n/// @title Patricia tree implementation\r\n/// @notice More info at: https://github.com/chriseth/patricia-trie\r\ncontract PatriciaTree is IPatriciaTree, PatriciaTreeBase {\r\n\r\n  using Data for Data.Tree;\r\n  using Data for Data.Edge;\r\n  using Data for Data.Label;\r\n  using Bits for uint;\r\n\r\n  function insert(bytes memory key, bytes memory value) public override {\r\n    tree.insert(keccak256(key), value);\r\n  }\r\n\r\n  function getProof(bytes memory key) public view override returns (uint branchMask, bytes32[] memory _siblings) { // ignore-swc-127\r\n    return getProofFunctionality(keccak256(key));\r\n  }\r\n\r\n  function getImpliedRoot(bytes memory key, bytes memory value, uint branchMask, bytes32[] memory siblings) public\r\n  pure override returns (bytes32)\r\n  {\r\n    return getImpliedRootHashKey(key, value, branchMask, siblings);\r\n  }\r\n\r\n  function getRootHash() public view override(IPatriciaTreeBase, PatriciaTreeBase) returns (bytes32) {\r\n    return super.getRootHash();\r\n  }\r\n\r\n  function getRootEdge() public view override(IPatriciaTreeBase, PatriciaTreeBase) returns (Data.Edge memory e) {\r\n    return super.getRootEdge();\r\n  }\r\n\r\n  function getNode(bytes32 hash) public view override(IPatriciaTreeBase, PatriciaTreeBase) returns (Data.Node memory n) {\r\n    return super.getNode(hash);\r\n  }\r\n}",
  "sourcePath": "D:/Ethereum/Reputation-Gateway/src/contracts/patricia tree/PatriciaTree.sol",
  "compiler": {
    "name": "solc",
    "version": "0.8.1+commit.df193b15.Emscripten.clang"
  },
  "schemaVersion": "3.4.0",
  "updatedAt": "2021-07-13T08:50:07.347Z",
  "devdoc": {
    "kind": "dev",
    "methods": {
      "getImpliedRoot(bytes,bytes,uint256,bytes32[])": {
        "returns": {
          "_0": "The calculated hash"
        }
      },
      "getProof(bytes)": {
        "returns": {
          "_siblings": "Hashes of sibling edges",
          "branchMask": "Bitmask with high bits at the positions in the `key` where we have branch nodes (bit in key denotes direction)"
        }
      }
    },
    "title": "Patricia tree implementation",
    "version": 1
  },
  "userdoc": {
    "kind": "user",
    "methods": {
      "getImpliedRoot(bytes,bytes,uint256,bytes32[])": {
        "notice": "Calculates and returns a root hash for the `key`, `value`, `branchMask` and `siblings`"
      },
      "getProof(bytes)": {
        "notice": "Returns the Merkle-proof for the given `key`"
      },
      "insert(bytes,bytes)": {
        "notice": "Insert the `key`/`value`in the appropriate place in the tree"
      }
    },
    "notice": "More info at: https://github.com/chriseth/patricia-trie",
    "version": 1
  }
}