{
  "contractName": "PatriciaTreeBase",
  "abi": [
    {
      "inputs": [],
      "name": "getRootHash",
      "outputs": [
        {
          "internalType": "bytes32",
          "name": "",
          "type": "bytes32"
        }
      ],
      "stateMutability": "view",
      "type": "function"
    },
    {
      "inputs": [],
      "name": "getRootEdge",
      "outputs": [
        {
          "components": [
            {
              "internalType": "bytes32",
              "name": "node",
              "type": "bytes32"
            },
            {
              "components": [
                {
                  "internalType": "bytes32",
                  "name": "data",
                  "type": "bytes32"
                },
                {
                  "internalType": "uint256",
                  "name": "length",
                  "type": "uint256"
                }
              ],
              "internalType": "struct Data.Label",
              "name": "label",
              "type": "tuple"
            }
          ],
          "internalType": "struct Data.Edge",
          "name": "e",
          "type": "tuple"
        }
      ],
      "stateMutability": "view",
      "type": "function"
    },
    {
      "inputs": [
        {
          "internalType": "bytes32",
          "name": "hash",
          "type": "bytes32"
        }
      ],
      "name": "getNode",
      "outputs": [
        {
          "components": [
            {
              "components": [
                {
                  "internalType": "bytes32",
                  "name": "node",
                  "type": "bytes32"
                },
                {
                  "components": [
                    {
                      "internalType": "bytes32",
                      "name": "data",
                      "type": "bytes32"
                    },
                    {
                      "internalType": "uint256",
                      "name": "length",
                      "type": "uint256"
                    }
                  ],
                  "internalType": "struct Data.Label",
                  "name": "label",
                  "type": "tuple"
                }
              ],
              "internalType": "struct Data.Edge[2]",
              "name": "children",
              "type": "tuple[2]"
            }
          ],
          "internalType": "struct Data.Node",
          "name": "n",
          "type": "tuple"
        }
      ],
      "stateMutability": "view",
      "type": "function"
    }
  ],
  "bytecode": "0x608060405234801561001057600080fd5b506104a3806100206000396000f3fe608060405234801561001057600080fd5b50600436106100415760003560e01c806350c946fe1461004657806380759f1f14610076578063a43914da14610094575b600080fd5b610060600480360381019061005b9190610256565b6100b2565b60405161006d91906103fa565b60405180910390f35b61007e610160565b60405161008b91906103c4565b60405180910390f35b61009c61016c565b6040516100a991906103df565b60405180910390f35b6100ba6101bb565b6000600401600083815260200190815260200160002060405180602001604052908160008201600280602002604051908101604052809291906000905b828210156101515783826003020160405180604001604052908160008201548152602001600182016040518060400160405290816000820154815260200160018201548152505081525050815260200190600101906100f7565b50505050815250509050919050565b60008060000154905090565b6101746101d4565b600060010160405180604001604052908160008201548152602001600182016040518060400160405290816000820154815260200160018201548152505081525050905090565b60405180602001604052806101ce6101f7565b81525090565b6040518060400160405280600080191681526020016101f1610224565b81525090565b60405180604001604052806002905b61020e6101d4565b8152602001906001900390816102065790505090565b604051806040016040528060008019168152602001600081525090565b60008135905061025081610456565b92915050565b60006020828403121561026857600080fd5b600061027684828501610241565b91505092915050565b600061028b838361030c565b60608301905092915050565b6102a08161041f565b6102aa8184610437565b92506102b582610415565b8060005b838110156102e65781516102cd878261027f565b96506102d88361042a565b9250506001810190506102b9565b505050505050565b6102f781610442565b82525050565b61030681610442565b82525050565b60608201600082015161032260008501826102ee565b506020820151610335602085018261036a565b50505050565b60608201600082015161035160008501826102ee565b506020820151610364602085018261036a565b50505050565b60408201600082015161038060008501826102ee565b50602082015161039360208501826103b5565b50505050565b60c0820160008201516103af6000850182610297565b50505050565b6103be8161044c565b82525050565b60006020820190506103d960008301846102fd565b92915050565b60006060820190506103f4600083018461033b565b92915050565b600060c08201905061040f6000830184610399565b92915050565b6000819050919050565b600060029050919050565b6000602082019050919050565b600081905092915050565b6000819050919050565b6000819050919050565b61045f81610442565b811461046a57600080fd5b5056fea2646970667358221220d5c1f3a71114e36f494a55f5de27e4a1689e5abe1797d3edc8cae44ff4e170e564736f6c63430008010033",
  "immutableReferences": {},
  "source": "// SPDX-License-Identifier: ISC\r\n\r\npragma solidity 0.8.1;\r\n\r\nimport {Data} from \"./Data.sol\";\r\nimport {Bits} from \"./Bits.sol\";\r\nimport \"./PatriciaTreeProofs.sol\";\r\n\r\n\r\n/// @title Patricia tree implementation\r\n/// @notice More info at: https://github.com/chriseth/patricia-trie\r\ncontract PatriciaTreeBase is PatriciaTreeProofs {\r\n\r\n  using Data for Data.Tree;\r\n  using Data for Data.Edge;\r\n  using Data for Data.Label;\r\n  using Bits for uint;\r\n\r\n  Data.Tree internal tree;\r\n\r\n  function getRootHash() public view virtual returns (bytes32) {\r\n    return tree.root;\r\n  }\r\n\r\n  function getRootEdge() public view virtual returns (Data.Edge memory e) {\r\n    e = tree.rootEdge;\r\n  }\r\n\r\n  function getNode(bytes32 hash) public view virtual returns (Data.Node memory n) {\r\n    n = tree.nodes[hash];\r\n  }\r\n\r\n  function getProofFunctionality(bytes32 key) internal view returns (uint branchMask, bytes32[] memory _siblings) {\r\n    require(tree.root != 0, \"colony-patricia-tree-zero-tree-root\");\r\n    Data.Label memory k = Data.Label(key, 256);\r\n    Data.Edge memory e = tree.rootEdge;\r\n    bytes32[256] memory siblings;\r\n    uint length;\r\n    uint numSiblings;\r\n    while (true) {\r\n      Data.Label memory prefix;\r\n      Data.Label memory suffix;\r\n      (prefix, suffix) = k.splitCommonPrefix(e.label);\r\n      assert(prefix.length == e.label.length); // I.e. never an unseen branch ignore-swc-110\r\n      if (suffix.length == 0) {\r\n        // Found it\r\n        break;\r\n      }\r\n      length += prefix.length;\r\n      branchMask |= uint(1) << 255 - length;\r\n      length += 1;\r\n      uint256 head;\r\n      Data.Label memory tail;\r\n      (head, tail) = suffix.chopFirstBit();\r\n      siblings[numSiblings++] = tree.nodes[e.node].children[1 - head].edgeHash();\r\n      e = tree.nodes[e.node].children[head];\r\n      k = tail;\r\n    }\r\n    if (numSiblings > 0) {\r\n      _siblings = new bytes32[](numSiblings);\r\n      for (uint i = 0; i < numSiblings; i++) {\r\n        _siblings[i] = siblings[i];\r\n      }\r\n    }\r\n  }\r\n}",
  "sourcePath": "D:\\Ethereum\\Reputation-Gateway\\src\\contracts\\patricia tree\\PatriciaTreeBase.sol",
  "compiler": {
    "name": "solc",
    "version": "0.8.1+commit.df193b15.Emscripten.clang"
  },
  "schemaVersion": "3.4.0",
  "updatedAt": "2021-07-13T08:50:07.358Z",
  "devdoc": {
    "kind": "dev",
    "methods": {},
    "title": "Patricia tree implementation",
    "version": 1
  },
  "userdoc": {
    "kind": "user",
    "methods": {},
    "notice": "More info at: https://github.com/chriseth/patricia-trie",
    "version": 1
  }
}