{
  "contractName": "PaymentGateway",
  "abi": [
    {
      "inputs": [
        {
          "internalType": "address",
          "name": "_treasury",
          "type": "address"
        },
        {
          "internalType": "address",
          "name": "_auditor",
          "type": "address"
        }
      ],
      "stateMutability": "nonpayable",
      "type": "constructor"
    },
    {
      "anonymous": false,
      "inputs": [
        {
          "indexed": true,
          "internalType": "address",
          "name": "sender",
          "type": "address"
        },
        {
          "indexed": true,
          "internalType": "address",
          "name": "receiver",
          "type": "address"
        },
        {
          "indexed": false,
          "internalType": "uint256",
          "name": "value",
          "type": "uint256"
        }
      ],
      "name": "CoinTransferred",
      "type": "event"
    },
    {
      "anonymous": false,
      "inputs": [
        {
          "indexed": false,
          "internalType": "contract ERC20",
          "name": "currency",
          "type": "address"
        },
        {
          "indexed": false,
          "internalType": "uint256",
          "name": "value",
          "type": "uint256"
        },
        {
          "indexed": false,
          "internalType": "bytes32",
          "name": "identidication",
          "type": "bytes32"
        }
      ],
      "name": "GoodPayed",
      "type": "event"
    },
    {
      "anonymous": false,
      "inputs": [
        {
          "indexed": true,
          "internalType": "address",
          "name": "previousOwner",
          "type": "address"
        },
        {
          "indexed": true,
          "internalType": "address",
          "name": "newOwner",
          "type": "address"
        }
      ],
      "name": "OwnershipTransferred",
      "type": "event"
    },
    {
      "anonymous": false,
      "inputs": [
        {
          "indexed": true,
          "internalType": "address",
          "name": "sender",
          "type": "address"
        },
        {
          "indexed": true,
          "internalType": "address",
          "name": "receiver",
          "type": "address"
        },
        {
          "indexed": false,
          "internalType": "contract ERC20",
          "name": "currency",
          "type": "address"
        },
        {
          "indexed": false,
          "internalType": "uint256",
          "name": "value",
          "type": "uint256"
        }
      ],
      "name": "TokenTransferred",
      "type": "event"
    },
    {
      "inputs": [
        {
          "internalType": "address",
          "name": "_seller",
          "type": "address"
        }
      ],
      "name": "dateOfNegetiveTransactions",
      "outputs": [
        {
          "components": [
            {
              "internalType": "address",
              "name": "seller",
              "type": "address"
            },
            {
              "internalType": "uint256",
              "name": "timestamp",
              "type": "uint256"
            }
          ],
          "internalType": "struct Reputation.NegativeStaticRep[]",
          "name": "",
          "type": "tuple[]"
        }
      ],
      "stateMutability": "view",
      "type": "function",
      "constant": true
    },
    {
      "inputs": [
        {
          "internalType": "address",
          "name": "_seller",
          "type": "address"
        }
      ],
      "name": "dateOfTransactions",
      "outputs": [
        {
          "components": [
            {
              "internalType": "address",
              "name": "seller",
              "type": "address"
            },
            {
              "internalType": "uint256",
              "name": "timestamp",
              "type": "uint256"
            }
          ],
          "internalType": "struct Reputation.StaticRep[]",
          "name": "",
          "type": "tuple[]"
        }
      ],
      "stateMutability": "view",
      "type": "function",
      "constant": true
    },
    {
      "inputs": [
        {
          "internalType": "address",
          "name": "_seller",
          "type": "address"
        }
      ],
      "name": "getNegetiveStaticReps",
      "outputs": [
        {
          "internalType": "uint256",
          "name": "",
          "type": "uint256"
        }
      ],
      "stateMutability": "view",
      "type": "function",
      "constant": true
    },
    {
      "inputs": [
        {
          "internalType": "address",
          "name": "_seller",
          "type": "address"
        }
      ],
      "name": "getStaticReps",
      "outputs": [
        {
          "internalType": "uint256",
          "name": "",
          "type": "uint256"
        }
      ],
      "stateMutability": "view",
      "type": "function",
      "constant": true
    },
    {
      "inputs": [
        {
          "internalType": "uint256",
          "name": "",
          "type": "uint256"
        }
      ],
      "name": "goods",
      "outputs": [
        {
          "internalType": "address",
          "name": "buyer",
          "type": "address"
        },
        {
          "internalType": "uint256",
          "name": "price",
          "type": "uint256"
        },
        {
          "internalType": "bytes32",
          "name": "identidication",
          "type": "bytes32"
        },
        {
          "internalType": "uint8",
          "name": "status",
          "type": "uint8"
        },
        {
          "internalType": "contract ERC20",
          "name": "currency",
          "type": "address"
        },
        {
          "internalType": "bool",
          "name": "isCurrencyToken",
          "type": "bool"
        }
      ],
      "stateMutability": "view",
      "type": "function",
      "constant": true
    },
    {
      "inputs": [],
      "name": "owner",
      "outputs": [
        {
          "internalType": "address",
          "name": "",
          "type": "address"
        }
      ],
      "stateMutability": "view",
      "type": "function",
      "constant": true
    },
    {
      "inputs": [
        {
          "internalType": "address",
          "name": "_newOwner",
          "type": "address"
        }
      ],
      "name": "transferOwnership",
      "outputs": [],
      "stateMutability": "nonpayable",
      "type": "function"
    },
    {
      "inputs": [],
      "name": "treasury",
      "outputs": [
        {
          "internalType": "address",
          "name": "",
          "type": "address"
        }
      ],
      "stateMutability": "view",
      "type": "function",
      "constant": true
    },
    {
      "inputs": [
        {
          "internalType": "address",
          "name": "_recipient",
          "type": "address"
        },
        {
          "internalType": "uint256",
          "name": "_value",
          "type": "uint256"
        },
        {
          "internalType": "contract ERC20",
          "name": "_currency",
          "type": "address"
        }
      ],
      "name": "transferTo",
      "outputs": [],
      "stateMutability": "nonpayable",
      "type": "function"
    },
    {
      "inputs": [
        {
          "internalType": "uint256",
          "name": "_value",
          "type": "uint256"
        },
        {
          "internalType": "contract ERC20",
          "name": "_currency",
          "type": "address"
        }
      ],
      "name": "withdraw",
      "outputs": [],
      "stateMutability": "nonpayable",
      "type": "function"
    },
    {
      "inputs": [
        {
          "internalType": "uint256",
          "name": "_value",
          "type": "uint256"
        },
        {
          "internalType": "contract ERC20",
          "name": "_currency",
          "type": "address"
        },
        {
          "internalType": "bytes32",
          "name": "_identidication",
          "type": "bytes32"
        }
      ],
      "name": "buy",
      "outputs": [],
      "stateMutability": "payable",
      "type": "function",
      "payable": true
    },
    {
      "inputs": [
        {
          "internalType": "uint256",
          "name": "_goodIdx",
          "type": "uint256"
        }
      ],
      "name": "finalize",
      "outputs": [],
      "stateMutability": "nonpayable",
      "type": "function"
    },
    {
      "inputs": [
        {
          "internalType": "uint256",
          "name": "_goodIdx",
          "type": "uint256"
        },
        {
          "internalType": "uint8",
          "name": "_rule",
          "type": "uint8"
        }
      ],
      "name": "vote",
      "outputs": [],
      "stateMutability": "nonpayable",
      "type": "function"
    },
    {
      "inputs": [
        {
          "internalType": "contract ERC20",
          "name": "_currency",
          "type": "address"
        }
      ],
      "name": "getBalance",
      "outputs": [
        {
          "internalType": "uint256",
          "name": "balance",
          "type": "uint256"
        }
      ],
      "stateMutability": "view",
      "type": "function",
      "constant": true
    }
  ],
  "bytecode": "0x60806040523480156200001157600080fd5b5060405162003ff038038062003ff0833981810160405281019062000037919062000313565b336000806101000a81548173ffffffffffffffffffffffffffffffffffffffff021916908373ffffffffffffffffffffffffffffffffffffffff1602179055506200008882620002a960201b60201c565b620000ca576040517f08c379a0000000000000000000000000000000000000000000000000000000008152600401620000c190620003a2565b60405180910390fd5b81600460006101000a81548173ffffffffffffffffffffffffffffffffffffffff021916908373ffffffffffffffffffffffffffffffffffffffff16021790555081600360006101000a81548173ffffffffffffffffffffffffffffffffffffffff021916908373ffffffffffffffffffffffffffffffffffffffff160217905550600460009054906101000a900473ffffffffffffffffffffffffffffffffffffffff1673ffffffffffffffffffffffffffffffffffffffff16638da5cb5b6040518163ffffffff1660e01b815260040160206040518083038186803b158015620001b557600080fd5b505afa158015620001ca573d6000803e3d6000fd5b505050506040513d601f19601f82011682018060405250810190620001f09190620002e7565b73ffffffffffffffffffffffffffffffffffffffff168173ffffffffffffffffffffffffffffffffffffffff161462000260576040517f08c379a00000000000000000000000000000000000000000000000000000000081526004016200025790620003c4565b60405180910390fd5b80600560006101000a81548173ffffffffffffffffffffffffffffffffffffffff021916908373ffffffffffffffffffffffffffffffffffffffff1602179055505050620004bd565b600080823b90506000811115620002c5576001915050620002cb565b60009150505b919050565b600081519050620002e181620004a3565b92915050565b600060208284031215620002fa57600080fd5b60006200030a84828501620002d0565b91505092915050565b600080604083850312156200032757600080fd5b60006200033785828601620002d0565b92505060206200034a85828601620002d0565b9150509250929050565b600062000363602583620003e6565b915062000370826200042b565b604082019050919050565b60006200038a601b83620003e6565b915062000397826200047a565b602082019050919050565b60006020820190508181036000830152620003bd8162000354565b9050919050565b60006020820190508181036000830152620003df816200037b565b9050919050565b600082825260208201905092915050565b600062000404826200040b565b9050919050565b600073ffffffffffffffffffffffffffffffffffffffff82169050919050565b7f506c6561736520646f206e6f742075736520616e2065787465726e616c20616360008201527f636f756e74000000000000000000000000000000000000000000000000000000602082015250565b7f41756469746f72206d757374206265207661756c74206f776e65720000000000600082015250565b620004ae81620003f7565b8114620004ba57600080fd5b50565b613b2380620004cd6000396000f3fe6080604052600436106100dc5760003560e01c80638da5cb5b1161007f578063c280541c11610059578063c280541c146102d4578063f2eea9c3146102f0578063f2fde38b1461032d578063f8b2cb4f14610356576100dc565b80638da5cb5b14610243578063943e82161461026e578063a33dd64514610297576100dc565b806361d027b3116100bb57806361d027b31461017557806369061885146101a05780637738f4e6146101dd57806386c69af81461021a576100dc565b8062f714ce146100e157806305261aea1461010a5780632f72439414610133575b600080fd5b3480156100ed57600080fd5b5061010860048036038101906101039190612e76565b610393565b005b34801561011657600080fd5b50610131600480360381019061012c9190612e24565b61081e565b005b34801561013f57600080fd5b5061015a60048036038101906101559190612e24565b61105c565b60405161016c96959493929190613341565b60405180910390f35b34801561018157600080fd5b5061018a611102565b60405161019791906132c6565b60405180910390f35b3480156101ac57600080fd5b506101c760048036038101906101c29190612d5a565b611128565b6040516101d491906133a2565b60405180910390f35b3480156101e957600080fd5b5061020460048036038101906101ff9190612d5a565b611226565b60405161021191906135e6565b60405180910390f35b34801561022657600080fd5b50610241600480360381019061023c9190612d83565b611272565b005b34801561024f57600080fd5b506102586116c7565b60405161026591906132c6565b60405180910390f35b34801561027a57600080fd5b5061029560048036038101906102909190612f01565b6116eb565b005b3480156102a357600080fd5b506102be60048036038101906102b99190612d5a565b612126565b6040516102cb91906133c4565b60405180910390f35b6102ee60048036038101906102e99190612eb2565b612224565b005b3480156102fc57600080fd5b5061031760048036038101906103129190612d5a565b6128ad565b60405161032491906135e6565b60405180910390f35b34801561033957600080fd5b50610354600480360381019061034f9190612d5a565b6128f9565b005b34801561036257600080fd5b5061037d60048036038101906103789190612dfb565b612a48565b60405161038a91906135e6565b60405180910390f35b600560009054906101000a900473ffffffffffffffffffffffffffffffffffffffff1673ffffffffffffffffffffffffffffffffffffffff166103d4612bb9565b73ffffffffffffffffffffffffffffffffffffffff161461042a576040517f08c379a000000000000000000000000000000000000000000000000000000000815260040161042190613466565b60405180910390fd5b600073ffffffffffffffffffffffffffffffffffffffff168173ffffffffffffffffffffffffffffffffffffffff16141561059357478211156104a2576040517f08c379a0000000000000000000000000000000000000000000000000000000008152600401610499906134c6565b60405180910390fd5b60008054906101000a900473ffffffffffffffffffffffffffffffffffffffff1673ffffffffffffffffffffffffffffffffffffffff166108fc839081150290604051600060405180830381858888f19350505050158015610508573d6000803e3d6000fd5b5060008054906101000a900473ffffffffffffffffffffffffffffffffffffffff1673ffffffffffffffffffffffffffffffffffffffff163073ffffffffffffffffffffffffffffffffffffffff167f9a8cb9c9a56a2f68f91554d7bdb72be0d5f88884d0084b6772230095e695fe428460405161058691906135e6565b60405180910390a361081a565b61059c81612bc1565b6105db576040517f08c379a00000000000000000000000000000000000000000000000000000000081526004016105d290613506565b60405180910390fd5b8073ffffffffffffffffffffffffffffffffffffffff166370a08231306040518263ffffffff1660e01b815260040161061491906132c6565b60206040518083038186803b15801561062c57600080fd5b505afa158015610640573d6000803e3d6000fd5b505050506040513d601f19601f820116820180604052508101906106649190612e4d565b8211156106a6576040517f08c379a000000000000000000000000000000000000000000000000000000000815260040161069d906135c6565b60405180910390fd5b8073ffffffffffffffffffffffffffffffffffffffff1663a9059cbb60008054906101000a900473ffffffffffffffffffffffffffffffffffffffff16846040518363ffffffff1660e01b8152600401610701929190613318565b602060405180830381600087803b15801561071b57600080fd5b505af115801561072f573d6000803e3d6000fd5b505050506040513d601f19601f820116820180604052508101906107539190612dd2565b610792576040517f08c379a0000000000000000000000000000000000000000000000000000000008152600401610789906134a6565b60405180910390fd5b60008054906101000a900473ffffffffffffffffffffffffffffffffffffffff1673ffffffffffffffffffffffffffffffffffffffff163073ffffffffffffffffffffffffffffffffffffffff167f9af266b6ca4909f988dc948fb50ad15153abbe525351881bad4fa858be96515c83856040516108119291906133e6565b60405180910390a35b5050565b60006006828154811061085a577f4e487b7100000000000000000000000000000000000000000000000000000000600052603260045260246000fd5b906000526020600020906004020190508060000160009054906101000a900473ffffffffffffffffffffffffffffffffffffffff1673ffffffffffffffffffffffffffffffffffffffff166108ad612bb9565b73ffffffffffffffffffffffffffffffffffffffff1614610903576040517f08c379a00000000000000000000000000000000000000000000000000000000081526004016108fa90613586565b60405180910390fd5b600061091482600101546064612be6565b9050600061092382600a612c44565b905060028360030160006101000a81548160ff021916908360ff160217905550600115158360030160159054906101000a900460ff1615151415610ce8578260030160019054906101000a900473ffffffffffffffffffffffffffffffffffffffff1673ffffffffffffffffffffffffffffffffffffffff1663a9059cbb600360009054906101000a900473ffffffffffffffffffffffffffffffffffffffff16836040518363ffffffff1660e01b81526004016109e2929190613318565b602060405180830381600087803b1580156109fc57600080fd5b505af1158015610a10573d6000803e3d6000fd5b505050506040513d601f19601f82011682018060405250810190610a349190612dd2565b610a73576040517f08c379a0000000000000000000000000000000000000000000000000000000008152600401610a6a906134a6565b60405180910390fd5b600360009054906101000a900473ffffffffffffffffffffffffffffffffffffffff1673ffffffffffffffffffffffffffffffffffffffff163073ffffffffffffffffffffffffffffffffffffffff167f9af266b6ca4909f988dc948fb50ad15153abbe525351881bad4fa858be96515c8560030160019054906101000a900473ffffffffffffffffffffffffffffffffffffffff1684604051610b189291906133e6565b60405180910390a38260030160019054906101000a900473ffffffffffffffffffffffffffffffffffffffff1673ffffffffffffffffffffffffffffffffffffffff1663a9059cbb60008054906101000a900473ffffffffffffffffffffffffffffffffffffffff1685600101546040518363ffffffff1660e01b8152600401610ba3929190613318565b602060405180830381600087803b158015610bbd57600080fd5b505af1158015610bd1573d6000803e3d6000fd5b505050506040513d601f19601f82011682018060405250810190610bf59190612dd2565b610c34576040517f08c379a0000000000000000000000000000000000000000000000000000000008152600401610c2b906134a6565b60405180910390fd5b60008054906101000a900473ffffffffffffffffffffffffffffffffffffffff1673ffffffffffffffffffffffffffffffffffffffff163073ffffffffffffffffffffffffffffffffffffffff167f9af266b6ca4909f988dc948fb50ad15153abbe525351881bad4fa858be96515c8560030160019054906101000a900473ffffffffffffffffffffffffffffffffffffffff168660010154604051610cdb9291906133e6565b60405180910390a3610f2f565b600015158360030160159054906101000a900460ff1615151415610f2e5747811115610d49576040517f08c379a0000000000000000000000000000000000000000000000000000000008152600401610d40906134c6565b60405180910390fd5b600360009054906101000a900473ffffffffffffffffffffffffffffffffffffffff1673ffffffffffffffffffffffffffffffffffffffff166108fc829081150290604051600060405180830381858888f19350505050158015610db1573d6000803e3d6000fd5b50600360009054906101000a900473ffffffffffffffffffffffffffffffffffffffff1673ffffffffffffffffffffffffffffffffffffffff163073ffffffffffffffffffffffffffffffffffffffff167f9a8cb9c9a56a2f68f91554d7bdb72be0d5f88884d0084b6772230095e695fe4283604051610e3191906135e6565b60405180910390a360008054906101000a900473ffffffffffffffffffffffffffffffffffffffff1673ffffffffffffffffffffffffffffffffffffffff166108fc84600101549081150290604051600060405180830381858888f19350505050158015610ea3573d6000803e3d6000fd5b5060008054906101000a900473ffffffffffffffffffffffffffffffffffffffff1673ffffffffffffffffffffffffffffffffffffffff163073ffffffffffffffffffffffffffffffffffffffff167f9a8cb9c9a56a2f68f91554d7bdb72be0d5f88884d0084b6772230095e695fe428560010154604051610f2591906135e6565b60405180910390a35b5b600160008060009054906101000a900473ffffffffffffffffffffffffffffffffffffffff1673ffffffffffffffffffffffffffffffffffffffff1673ffffffffffffffffffffffffffffffffffffffff168152602001908152602001600020604051806040016040528060008054906101000a900473ffffffffffffffffffffffffffffffffffffffff1673ffffffffffffffffffffffffffffffffffffffff16815260200142815250908060018154018082558091505060019003906000526020600020906002020160009091909190915060008201518160000160006101000a81548173ffffffffffffffffffffffffffffffffffffffff021916908373ffffffffffffffffffffffffffffffffffffffff16021790555060208201518160010155505050505050565b6006818154811061106c57600080fd5b90600052602060002090600402016000915090508060000160009054906101000a900473ffffffffffffffffffffffffffffffffffffffff16908060010154908060020154908060030160009054906101000a900460ff16908060030160019054906101000a900473ffffffffffffffffffffffffffffffffffffffff16908060030160159054906101000a900460ff16905086565b600360009054906101000a900473ffffffffffffffffffffffffffffffffffffffff1681565b6060600260008373ffffffffffffffffffffffffffffffffffffffff1673ffffffffffffffffffffffffffffffffffffffff168152602001908152602001600020805480602002602001604051908101604052809291908181526020016000905b8282101561121b57838290600052602060002090600202016040518060400160405290816000820160009054906101000a900473ffffffffffffffffffffffffffffffffffffffff1673ffffffffffffffffffffffffffffffffffffffff1673ffffffffffffffffffffffffffffffffffffffff16815260200160018201548152505081526020019060010190611189565b505050509050919050565b6000600160008373ffffffffffffffffffffffffffffffffffffffff1673ffffffffffffffffffffffffffffffffffffffff168152602001908152602001600020805490509050919050565b600560009054906101000a900473ffffffffffffffffffffffffffffffffffffffff1673ffffffffffffffffffffffffffffffffffffffff166112b3612bb9565b73ffffffffffffffffffffffffffffffffffffffff1614611309576040517f08c379a000000000000000000000000000000000000000000000000000000000815260040161130090613466565b60405180910390fd5b61131283612bc1565b15611352576040517f08c379a000000000000000000000000000000000000000000000000000000000815260040161134990613566565b60405180910390fd5b600073ffffffffffffffffffffffffffffffffffffffff168173ffffffffffffffffffffffffffffffffffffffff16141561147b57478211156113ca576040517f08c379a00000000000000000000000000000000000000000000000000000000081526004016113c1906134c6565b60405180910390fd5b8273ffffffffffffffffffffffffffffffffffffffff166108fc839081150290604051600060405180830381858888f19350505050158015611410573d6000803e3d6000fd5b508273ffffffffffffffffffffffffffffffffffffffff163073ffffffffffffffffffffffffffffffffffffffff167f9a8cb9c9a56a2f68f91554d7bdb72be0d5f88884d0084b6772230095e695fe428460405161146e91906135e6565b60405180910390a36116c2565b61148481612bc1565b6114c3576040517f08c379a00000000000000000000000000000000000000000000000000000000081526004016114ba90613506565b60405180910390fd5b8073ffffffffffffffffffffffffffffffffffffffff166370a08231306040518263ffffffff1660e01b81526004016114fc91906132c6565b60206040518083038186803b15801561151457600080fd5b505afa158015611528573d6000803e3d6000fd5b505050506040513d601f19601f8201168201806040525081019061154c9190612e4d565b82111561158e576040517f08c379a0000000000000000000000000000000000000000000000000000000008152600401611585906135c6565b60405180910390fd5b8073ffffffffffffffffffffffffffffffffffffffff1663a9059cbb84846040518363ffffffff1660e01b81526004016115c9929190613318565b602060405180830381600087803b1580156115e357600080fd5b505af11580156115f7573d6000803e3d6000fd5b505050506040513d601f19601f8201168201806040525081019061161b9190612dd2565b61165a576040517f08c379a0000000000000000000000000000000000000000000000000000000008152600401611651906134a6565b60405180910390fd5b8273ffffffffffffffffffffffffffffffffffffffff163073ffffffffffffffffffffffffffffffffffffffff167f9af266b6ca4909f988dc948fb50ad15153abbe525351881bad4fa858be96515c83856040516116b99291906133e6565b60405180910390a35b505050565b60008054906101000a900473ffffffffffffffffffffffffffffffffffffffff1681565b600560009054906101000a900473ffffffffffffffffffffffffffffffffffffffff1673ffffffffffffffffffffffffffffffffffffffff1661172c612bb9565b73ffffffffffffffffffffffffffffffffffffffff1614611782576040517f08c379a000000000000000000000000000000000000000000000000000000000815260040161177990613466565b60405180910390fd5b6000600683815481106117be577f4e487b7100000000000000000000000000000000000000000000000000000000600052603260045260246000fd5b9060005260206000209060040201905060006117df82600101546064612be6565b905060006117ee82600a612c44565b905060018460ff161415611c7b57600115158360030160159054906101000a900460ff16151514156119de578260030160019054906101000a900473ffffffffffffffffffffffffffffffffffffffff1673ffffffffffffffffffffffffffffffffffffffff1663a9059cbb600360009054906101000a900473ffffffffffffffffffffffffffffffffffffffff16836040518363ffffffff1660e01b815260040161189b929190613318565b602060405180830381600087803b1580156118b557600080fd5b505af11580156118c9573d6000803e3d6000fd5b505050506040513d601f19601f820116820180604052508101906118ed9190612dd2565b61192c576040517f08c379a0000000000000000000000000000000000000000000000000000000008152600401611923906134a6565b60405180910390fd5b600360009054906101000a900473ffffffffffffffffffffffffffffffffffffffff1673ffffffffffffffffffffffffffffffffffffffff163073ffffffffffffffffffffffffffffffffffffffff167f9af266b6ca4909f988dc948fb50ad15153abbe525351881bad4fa858be96515c8560030160019054906101000a900473ffffffffffffffffffffffffffffffffffffffff16846040516119d19291906133e6565b60405180910390a3611b31565b600015158360030160159054906101000a900460ff1615151415611b305747811115611a3f576040517f08c379a0000000000000000000000000000000000000000000000000000000008152600401611a36906134c6565b60405180910390fd5b600360009054906101000a900473ffffffffffffffffffffffffffffffffffffffff1673ffffffffffffffffffffffffffffffffffffffff166108fc829081150290604051600060405180830381858888f19350505050158015611aa7573d6000803e3d6000fd5b50600360009054906101000a900473ffffffffffffffffffffffffffffffffffffffff1673ffffffffffffffffffffffffffffffffffffffff163073ffffffffffffffffffffffffffffffffffffffff167f9a8cb9c9a56a2f68f91554d7bdb72be0d5f88884d0084b6772230095e695fe4283604051611b2791906135e6565b60405180910390a35b5b600160008060009054906101000a900473ffffffffffffffffffffffffffffffffffffffff1673ffffffffffffffffffffffffffffffffffffffff1673ffffffffffffffffffffffffffffffffffffffff168152602001908152602001600020604051806040016040528060008054906101000a900473ffffffffffffffffffffffffffffffffffffffff1673ffffffffffffffffffffffffffffffffffffffff16815260200142815250908060018154018082558091505060019003906000526020600020906002020160009091909190915060008201518160000160006101000a81548173ffffffffffffffffffffffffffffffffffffffff021916908373ffffffffffffffffffffffffffffffffffffffff16021790555060208201518160010155505060028360030160006101000a81548160ff021916908360ff16021790555061211f565b60028460ff16141561211e57600115158360030160159054906101000a900460ff1615151415611e75578260030160019054906101000a900473ffffffffffffffffffffffffffffffffffffffff1673ffffffffffffffffffffffffffffffffffffffff1663a9059cbb8460000160009054906101000a900473ffffffffffffffffffffffffffffffffffffffff1685600101546040518363ffffffff1660e01b8152600401611d2c929190613318565b602060405180830381600087803b158015611d4657600080fd5b505af1158015611d5a573d6000803e3d6000fd5b505050506040513d601f19601f82011682018060405250810190611d7e9190612dd2565b611dbd576040517f08c379a0000000000000000000000000000000000000000000000000000000008152600401611db4906134a6565b60405180910390fd5b8260000160009054906101000a900473ffffffffffffffffffffffffffffffffffffffff1673ffffffffffffffffffffffffffffffffffffffff163073ffffffffffffffffffffffffffffffffffffffff167f9af266b6ca4909f988dc948fb50ad15153abbe525351881bad4fa858be96515c8560030160019054906101000a900473ffffffffffffffffffffffffffffffffffffffff168660010154604051611e689291906133e6565b60405180910390a3611fd8565b600015158360030160159054906101000a900460ff1615151415611fd7574783600101541115611eda576040517f08c379a0000000000000000000000000000000000000000000000000000000008152600401611ed1906134c6565b60405180910390fd5b8260000160009054906101000a900473ffffffffffffffffffffffffffffffffffffffff1673ffffffffffffffffffffffffffffffffffffffff166108fc84600101549081150290604051600060405180830381858888f19350505050158015611f48573d6000803e3d6000fd5b508260000160009054906101000a900473ffffffffffffffffffffffffffffffffffffffff1673ffffffffffffffffffffffffffffffffffffffff163073ffffffffffffffffffffffffffffffffffffffff167f9a8cb9c9a56a2f68f91554d7bdb72be0d5f88884d0084b6772230095e695fe428560010154604051611fce91906135e6565b60405180910390a35b5b600260008060009054906101000a900473ffffffffffffffffffffffffffffffffffffffff1673ffffffffffffffffffffffffffffffffffffffff1673ffffffffffffffffffffffffffffffffffffffff168152602001908152602001600020604051806040016040528060008054906101000a900473ffffffffffffffffffffffffffffffffffffffff1673ffffffffffffffffffffffffffffffffffffffff16815260200142815250908060018154018082558091505060019003906000526020600020906002020160009091909190915060008201518160000160006101000a81548173ffffffffffffffffffffffffffffffffffffffff021916908373ffffffffffffffffffffffffffffffffffffffff16021790555060208201518160010155505060038360030160006101000a81548160ff021916908360ff1602179055505b5b5050505050565b6060600160008373ffffffffffffffffffffffffffffffffffffffff1673ffffffffffffffffffffffffffffffffffffffff168152602001908152602001600020805480602002602001604051908101604052809291908181526020016000905b8282101561221957838290600052602060002090600202016040518060400160405290816000820160009054906101000a900473ffffffffffffffffffffffffffffffffffffffff1673ffffffffffffffffffffffffffffffffffffffff1673ffffffffffffffffffffffffffffffffffffffff16815260200160018201548152505081526020019060010190612187565b505050509050919050565b60008054906101000a900473ffffffffffffffffffffffffffffffffffffffff1673ffffffffffffffffffffffffffffffffffffffff16612263612bb9565b73ffffffffffffffffffffffffffffffffffffffff1614156122ba576040517f08c379a00000000000000000000000000000000000000000000000000000000081526004016122b190613546565b60405180910390fd5b600073ffffffffffffffffffffffffffffffffffffffff168273ffffffffffffffffffffffffffffffffffffffff16141561252057826122f8612cbf565b14612338576040517f08c379a000000000000000000000000000000000000000000000000000000000815260040161232f906135a6565b60405180910390fd5b60066040518060c0016040528061234d612bb9565b73ffffffffffffffffffffffffffffffffffffffff168152602001858152602001838152602001600160ff1681526020018473ffffffffffffffffffffffffffffffffffffffff16815260200160001515815250908060018154018082558091505060019003906000526020600020906004020160009091909190915060008201518160000160006101000a81548173ffffffffffffffffffffffffffffffffffffffff021916908373ffffffffffffffffffffffffffffffffffffffff160217905550602082015181600101556040820151816002015560608201518160030160006101000a81548160ff021916908360ff16021790555060808201518160030160016101000a81548173ffffffffffffffffffffffffffffffffffffffff021916908373ffffffffffffffffffffffffffffffffffffffff16021790555060a08201518160030160156101000a81548160ff02191690831515021790555050503073ffffffffffffffffffffffffffffffffffffffff166124ce612bb9565b73ffffffffffffffffffffffffffffffffffffffff167f9a8cb9c9a56a2f68f91554d7bdb72be0d5f88884d0084b6772230095e695fe428560405161251391906135e6565b60405180910390a361286d565b60066040518060c00160405280612535612bb9565b73ffffffffffffffffffffffffffffffffffffffff168152602001858152602001838152602001600160ff1681526020018473ffffffffffffffffffffffffffffffffffffffff16815260200160011515815250908060018154018082558091505060019003906000526020600020906004020160009091909190915060008201518160000160006101000a81548173ffffffffffffffffffffffffffffffffffffffff021916908373ffffffffffffffffffffffffffffffffffffffff160217905550602082015181600101556040820151816002015560608201518160030160006101000a81548160ff021916908360ff16021790555060808201518160030160016101000a81548173ffffffffffffffffffffffffffffffffffffffff021916908373ffffffffffffffffffffffffffffffffffffffff16021790555060a08201518160030160156101000a81548160ff02191690831515021790555050506126a082612bc1565b6126df576040517f08c379a00000000000000000000000000000000000000000000000000000000081526004016126d690613506565b60405180910390fd5b60006126e9612cbf565b14612729576040517f08c379a000000000000000000000000000000000000000000000000000000000815260040161272090613446565b60405180910390fd5b8173ffffffffffffffffffffffffffffffffffffffff166323b872dd61274d612bb9565b30866040518463ffffffff1660e01b815260040161276d939291906132e1565b602060405180830381600087803b15801561278757600080fd5b505af115801561279b573d6000803e3d6000fd5b505050506040513d601f19601f820116820180604052508101906127bf9190612dd2565b6127fe576040517f08c379a00000000000000000000000000000000000000000000000000000000081526004016127f5906134e6565b60405180910390fd5b3073ffffffffffffffffffffffffffffffffffffffff1661281d612bb9565b73ffffffffffffffffffffffffffffffffffffffff167f9af266b6ca4909f988dc948fb50ad15153abbe525351881bad4fa858be96515c84866040516128649291906133e6565b60405180910390a35b7f2a97d0a5db667135f231f21a08e01d34f40626b575b1624bed9bab8064ec92628284836040516128a09392919061340f565b60405180910390a1505050565b6000600260008373ffffffffffffffffffffffffffffffffffffffff1673ffffffffffffffffffffffffffffffffffffffff168152602001908152602001600020805490509050919050565b60008054906101000a900473ffffffffffffffffffffffffffffffffffffffff1673ffffffffffffffffffffffffffffffffffffffff163373ffffffffffffffffffffffffffffffffffffffff161461295157600080fd5b600073ffffffffffffffffffffffffffffffffffffffff168173ffffffffffffffffffffffffffffffffffffffff16141561298b57600080fd5b8073ffffffffffffffffffffffffffffffffffffffff1660008054906101000a900473ffffffffffffffffffffffffffffffffffffffff1673ffffffffffffffffffffffffffffffffffffffff167f8be0079c531659141344cd1fd0a4f28419497f9722a3daafe3b4186f6b6457e060405160405180910390a3806000806101000a81548173ffffffffffffffffffffffffffffffffffffffff021916908373ffffffffffffffffffffffffffffffffffffffff16021790555050565b60008060009054906101000a900473ffffffffffffffffffffffffffffffffffffffff1673ffffffffffffffffffffffffffffffffffffffff163373ffffffffffffffffffffffffffffffffffffffff1614612aa357600080fd5b600073ffffffffffffffffffffffffffffffffffffffff168273ffffffffffffffffffffffffffffffffffffffff161415612ae057479050612bb4565b612ae982612bc1565b612b28576040517f08c379a0000000000000000000000000000000000000000000000000000000008152600401612b1f90613506565b60405180910390fd5b8173ffffffffffffffffffffffffffffffffffffffff166370a08231306040518263ffffffff1660e01b8152600401612b6191906132c6565b60206040518083038186803b158015612b7957600080fd5b505afa158015612b8d573d6000803e3d6000fd5b505050506040513d601f19601f82011682018060405250810190612bb19190612e4d565b90505b919050565b600033905090565b600080823b90506000811115612bdb576001915050612be1565b60009150505b919050565b6000808211612c2a576040517f08c379a0000000000000000000000000000000000000000000000000000000008152600401612c2190613526565b60405180910390fd5b60008284612c389190613684565b90508091505092915050565b600080831415612c575760009050612cb9565b60008284612c6591906136b5565b9050828482612c749190613684565b14612cb4576040517f08c379a0000000000000000000000000000000000000000000000000000000008152600401612cab90613486565b60405180910390fd5b809150505b92915050565b600034905090565b600081359050612cd681613a63565b92915050565b600081519050612ceb81613a7a565b92915050565b600081359050612d0081613a91565b92915050565b600081359050612d1581613aa8565b92915050565b600081359050612d2a81613abf565b92915050565b600081519050612d3f81613abf565b92915050565b600081359050612d5481613ad6565b92915050565b600060208284031215612d6c57600080fd5b6000612d7a84828501612cc7565b91505092915050565b600080600060608486031215612d9857600080fd5b6000612da686828701612cc7565b9350506020612db786828701612d1b565b9250506040612dc886828701612d06565b9150509250925092565b600060208284031215612de457600080fd5b6000612df284828501612cdc565b91505092915050565b600060208284031215612e0d57600080fd5b6000612e1b84828501612d06565b91505092915050565b600060208284031215612e3657600080fd5b6000612e4484828501612d1b565b91505092915050565b600060208284031215612e5f57600080fd5b6000612e6d84828501612d30565b91505092915050565b60008060408385031215612e8957600080fd5b6000612e9785828601612d1b565b9250506020612ea885828601612d06565b9150509250929050565b600080600060608486031215612ec757600080fd5b6000612ed586828701612d1b565b9350506020612ee686828701612d06565b9250506040612ef786828701612cf1565b9150509250925092565b60008060408385031215612f1457600080fd5b6000612f2285828601612d1b565b9250506020612f3385828601612d45565b9150509250929050565b6000612f49838361323b565b60408301905092915050565b6000612f61838361326a565b60408301905092915050565b612f768161370f565b82525050565b612f858161370f565b82525050565b6000612f9682613621565b612fa08185613651565b9350612fab83613601565b8060005b83811015612fdc578151612fc38882612f3d565b9750612fce83613637565b925050600181019050612faf565b5085935050505092915050565b6000612ff48261362c565b612ffe8185613662565b935061300983613611565b8060005b8381101561303a5781516130218882612f55565b975061302c83613644565b92505060018101905061300d565b5085935050505092915050565b61305081613721565b82525050565b61305f8161372d565b82525050565b61306e81613780565b82525050565b6000613081601283613673565b915061308c82613802565b602082019050919050565b60006130a4601383613673565b91506130af8261382b565b602082019050919050565b60006130c7601783613673565b91506130d282613854565b602082019050919050565b60006130ea601c83613673565b91506130f58261387d565b602082019050919050565b600061310d601283613673565b9150613118826138a6565b602082019050919050565b6000613130601383613673565b915061313b826138cf565b602082019050919050565b6000613153601883613673565b915061315e826138f8565b602082019050919050565b6000613176601083613673565b915061318182613921565b602082019050919050565b6000613199601e83613673565b91506131a48261394a565b602082019050919050565b60006131bc604d83613673565b91506131c782613973565b606082019050919050565b60006131df601183613673565b91506131ea826139e8565b602082019050919050565b6000613202601e83613673565b915061320d82613a11565b602082019050919050565b6000613225601883613673565b915061323082613a3a565b602082019050919050565b6040820160008201516132516000850182612f6d565b5060208201516132646020850182613299565b50505050565b6040820160008201516132806000850182612f6d565b5060208201516132936020850182613299565b50505050565b6132a281613769565b82525050565b6132b181613769565b82525050565b6132c081613773565b82525050565b60006020820190506132db6000830184612f7c565b92915050565b60006060820190506132f66000830186612f7c565b6133036020830185612f7c565b61331060408301846132a8565b949350505050565b600060408201905061332d6000830185612f7c565b61333a60208301846132a8565b9392505050565b600060c0820190506133566000830189612f7c565b61336360208301886132a8565b6133706040830187613056565b61337d60608301866132b7565b61338a6080830185613065565b61339760a0830184613047565b979650505050505050565b600060208201905081810360008301526133bc8184612f8b565b905092915050565b600060208201905081810360008301526133de8184612fe9565b905092915050565b60006040820190506133fb6000830185613065565b61340860208301846132a8565b9392505050565b60006060820190506134246000830186613065565b61343160208301856132a8565b61343e6040830184613056565b949350505050565b6000602082019050818103600083015261345f81613074565b9050919050565b6000602082019050818103600083015261347f81613097565b9050919050565b6000602082019050818103600083015261349f816130ba565b9050919050565b600060208201905081810360008301526134bf816130dd565b9050919050565b600060208201905081810360008301526134df81613100565b9050919050565b600060208201905081810360008301526134ff81613123565b9050919050565b6000602082019050818103600083015261351f81613146565b9050919050565b6000602082019050818103600083015261353f81613169565b9050919050565b6000602082019050818103600083015261355f8161318c565b9050919050565b6000602082019050818103600083015261357f816131af565b9050919050565b6000602082019050818103600083015261359f816131d2565b9050919050565b600060208201905081810360008301526135bf816131f5565b9050919050565b600060208201905081810360008301526135df81613218565b9050919050565b60006020820190506135fb60008301846132a8565b92915050565b6000819050602082019050919050565b6000819050602082019050919050565b600081519050919050565b600081519050919050565b6000602082019050919050565b6000602082019050919050565b600082825260208201905092915050565b600082825260208201905092915050565b600082825260208201905092915050565b600061368f82613769565b915061369a83613769565b9250826136aa576136a96137d3565b5b828204905092915050565b60006136c082613769565b91506136cb83613769565b9250817fffffffffffffffffffffffffffffffffffffffffffffffffffffffffffffffff0483118215151615613704576137036137a4565b5b828202905092915050565b600061371a82613749565b9050919050565b60008115159050919050565b6000819050919050565b60006137428261370f565b9050919050565b600073ffffffffffffffffffffffffffffffffffffffff82169050919050565b6000819050919050565b600060ff82169050919050565b600061378b82613792565b9050919050565b600061379d82613749565b9050919050565b7f4e487b7100000000000000000000000000000000000000000000000000000000600052601160045260246000fd5b7f4e487b7100000000000000000000000000000000000000000000000000000000600052601260045260246000fd5b7f436f696e20776f756c64206265206c6f73740000000000000000000000000000600082015250565b7f796f7520617265206e6f742061756469746f7200000000000000000000000000600082015250565b7f6d756c7469706c69636174696f6e206f766572666c6f77000000000000000000600082015250565b7f746f6b656e207472616e73666572206661696c6564206661696c656400000000600082015250565b7f6e6f7420656e6f7567682062616c616e63650000000000000000000000000000600082015250565b7f7472616e7366657246726f6d206661696c656400000000000000000000000000600082015250565b7f496e76616c696420436f6e747261637420616464726573730000000000000000600082015250565b7f6469766973696f6e206279207a65726f00000000000000000000000000000000600082015250565b7f796f752063616e6e6f7420627579206f6e20796f757220676174657761790000600082015250565b7f506c656173652075736520616e2045787465726e616c206163636f756e742e2060008201527f596f752063616e6e6f742073656e6420796f757220636f696e7320746f206f7460208201527f68657220636f6e74726163747300000000000000000000000000000000000000604082015250565b7f796f7520617265206e6f74206275796572000000000000000000000000000000600082015250565b7f436f696e2076616c756520646f65736e2774206d61746368206f666665720000600082015250565b7f6e6f7420656e6f75676820546f6b656e2062616c616e63650000000000000000600082015250565b613a6c8161370f565b8114613a7757600080fd5b50565b613a8381613721565b8114613a8e57600080fd5b50565b613a9a8161372d565b8114613aa557600080fd5b50565b613ab181613737565b8114613abc57600080fd5b50565b613ac881613769565b8114613ad357600080fd5b50565b613adf81613773565b8114613aea57600080fd5b5056fea2646970667358221220c1e22da5594347a33303eea9815bb891eedef40b7139eb475a6862c85e0cc93d64736f6c63430008010033",
  "immutableReferences": {},
  "source": "// SPDX-License-Identifier: ISC\r\n\r\npragma solidity ^0.8.1;\r\n\r\nimport \"../ownership/Ownership.sol\";\r\nimport \"../token/ERC20.sol\";\r\nimport \"../lib/SafeMath.sol\";\r\nimport \"../reputation/Reputation.sol\";\r\nimport \"../treasury/Treasury.sol\";\r\n\r\n\r\ncontract PaymentGateway is Ownership, Reputation {\r\n    \r\n    using SafeMath for *;\r\n    \r\n    address public treasury;\r\n    Treasury treasuryContract;\r\n    address private auditor;\r\n    \r\n    uint constant private TREASURY_FEE_PERCENTAGE = 10;\r\n    \r\n    struct Good {\r\n        address buyer;            // address of buyer\r\n        uint price;               // price of craft\r\n        bytes32 identidication;   // identidication of good\r\n        uint8 status;             // 1: purchased , 2: finalized , 3: arbitrated\r\n        ERC20 currency;           // currency of good\r\n        bool isCurrencyToken;     // Ether or Token\r\n    }\r\n    \r\n    Good[] public goods;\r\n    \r\n    // address ether :0x0000000000000000000000000000000000000000\r\n\r\n    // emits when coins(not tokens) are transferred\r\n    event CoinTransferred(address indexed sender, address indexed receiver, uint value);    \r\n    // emits when tokens are transferred\r\n    event TokenTransferred(address indexed sender, address indexed receiver, ERC20 currency, uint value); \r\n    // emits when good payed\r\n    event GoodPayed(ERC20 currency, uint value, bytes32 identidication);\r\n    \r\n    // address of msg.sender\r\n    function _msgSender() internal view returns (address) {                \r\n        return msg.sender;\r\n    }\r\n\r\n    // amount of msg.value\r\n    function _msgValue() internal view returns (uint) {                     \r\n        return msg.value;\r\n    }\r\n    \r\n    constructor(address _treasury, address _auditor) {\r\n        require(checkForSmartContract(_treasury),\"Please do not use an external account\");\r\n        // initiate reputation\r\n        treasuryContract = Treasury(_treasury);\r\n        // set the treasury of gateway\r\n        treasury = payable(_treasury);  \r\n        // set the address of auditor in case of voting for resolution\r\n        require(_auditor == treasuryContract.owner(), \"Auditor must be vault owner\");\r\n        auditor = _auditor;\r\n    }\r\n\r\n    // checks an address / contract or EOA\r\n    function checkForSmartContract(address _address) internal view returns(bool) {             \r\n        uint size;\r\n        assembly{\r\n            size:= extcodesize(_address)\r\n        }\r\n        if (size > 0) {\r\n            // this is a smart contract\r\n            return true;\r\n        }\r\n        else return false;\r\n    }\r\n    \r\n    // trasnfer currencies from gateway to any EAO\r\n    function transferTo(address _recipient, uint256 _value, ERC20 _currency) public {      \r\n        require(_msgSender() == auditor, \"you are not auditor\");\r\n        require(!checkForSmartContract(_recipient),\"Please use an External account. You cannot send your coins to other contracts\");\r\n        if (address(_currency) == address(0x0)) { \r\n            require(_value <= address(this).balance, \"not enough balance\");\r\n            payable(_recipient).transfer(_value);\r\n            emit CoinTransferred(address(this), _recipient, _value);\r\n        } \r\n        else { // use Token\r\n            require(checkForSmartContract(address(_currency)), \"Invalid Contract address\");\r\n            require(_value <= _currency.balanceOf(address(this)), \"not enough Token balance\");\r\n            require(_currency.transfer(_recipient, _value),  \"token transfer failed failed\");\r\n            // event for transfer to any wallet\r\n            emit TokenTransferred(address(this), _recipient , _currency, _value);    \r\n        }\r\n    }\r\n    \r\n    // trasnfer currencies from gateway to owner\r\n    function withdraw(uint256 _value, ERC20 _currency) public {  \r\n        require(_msgSender() == auditor, \"you are not auditor\");\r\n        if (address(_currency) == address(0x0)) { \r\n            require(_value <= address(this).balance, \"not enough balance\");\r\n            payable(owner).transfer(_value);\r\n            emit CoinTransferred(address(this), owner, _value);\r\n        } \r\n        else { // use Token\r\n            require(checkForSmartContract(address(_currency)), \"Invalid Contract address\");\r\n            require(_value <= _currency.balanceOf(address(this)), \"not enough Token balance\");\r\n            require(_currency.transfer(owner, _value),  \"token transfer failed failed\");\r\n            // event for transfer to owner\r\n            emit TokenTransferred(address(this), owner , _currency, _value);                       \r\n        }\r\n    }\r\n    \r\n    // costumers call this and transfer currency to gateway\r\n    function buy(uint _value, ERC20 _currency, bytes32 _identidication) public payable { \r\n        \r\n        require(_msgSender() != owner, \"you cannot buy on your gateway\");\r\n        \r\n        \r\n        if (address(_currency) == address(0x0)) { \r\n            require(_msgValue() == _value, \"Coin value doesn't match offer\");\r\n            \r\n            goods.push(Good({\r\n            buyer: _msgSender(),\r\n            price: _value,\r\n            identidication: _identidication,\r\n            isCurrencyToken: false,\r\n            currency: _currency,\r\n            status: 1\r\n            }));\r\n                      \r\n            emit CoinTransferred(_msgSender(), address(this), _value);\r\n        } \r\n        else { // use Token\r\n            \r\n            goods.push(Good({\r\n            buyer: _msgSender(),\r\n            price: _value,\r\n            identidication: _identidication,\r\n            isCurrencyToken: true,\r\n            currency: _currency,\r\n            status: 1\r\n            }));\r\n            \r\n            require(checkForSmartContract(address(_currency)), \"Invalid Contract address\");\r\n            require(_msgValue() == 0, \"Coin would be lost\");\r\n            require(_currency.transferFrom(_msgSender(), address(this), _value),  \"transferFrom failed\");\r\n            \r\n            // event for transfer from to contract\r\n            emit TokenTransferred(_msgSender(), address(this), _currency, _value); \r\n        }\r\n        \r\n        // good payedout\r\n        emit GoodPayed(_currency, _value, _identidication);\r\n    }\r\n    \r\n    function finalize(uint _goodIdx) public {\r\n        \r\n        Good storage good = goods[_goodIdx];\r\n        require(_msgSender() == good.buyer, \"you are not buyer\");\r\n        \r\n        uint temp = SafeMath.div(good.price, 100);\r\n        uint fee = SafeMath.mul(temp, TREASURY_FEE_PERCENTAGE);\r\n        good.status = 2;\r\n        \r\n        if(good.isCurrencyToken == true){\r\n            require(good.currency.transfer(treasury, fee),  \"token transfer failed failed\");\r\n            emit TokenTransferred(address(this), treasury , good.currency, fee); \r\n            \r\n            // pay owner\r\n            require(good.currency.transfer(owner, good.price),  \"token transfer failed failed\");\r\n            // event for transfer to owner\r\n            emit TokenTransferred(address(this), owner , good.currency, good.price);\r\n            \r\n        } else if (good.isCurrencyToken == false){\r\n            require(fee <= address(this).balance, \"not enough balance\");\r\n            payable(treasury).transfer(fee); \r\n            emit CoinTransferred(address(this), treasury, fee);\r\n            \r\n            // pay owner\r\n            payable(owner).transfer(good.price);\r\n            emit CoinTransferred(address(this), owner, good.price);\r\n        }\r\n        \r\n        staticReps[owner].push(StaticRep({seller: owner, timestamp: block.timestamp}));\r\n    }\r\n    \r\n    function vote(uint _goodIdx,uint8 _rule) public {   // 1: Seller, 2: Buyer\r\n        \r\n        require(_msgSender() == auditor, \"you are not auditor\");\r\n        Good storage good = goods[_goodIdx];\r\n        uint temp = SafeMath.div(good.price, 100);\r\n        uint fee = SafeMath.mul(temp, TREASURY_FEE_PERCENTAGE);\r\n        \r\n        if (_rule == 1){\r\n            \r\n            if(good.isCurrencyToken == true){\r\n                require(good.currency.transfer(treasury, fee),  \"token transfer failed failed\");\r\n                emit TokenTransferred(address(this), treasury , good.currency, fee); \r\n            \r\n            } else if (good.isCurrencyToken == false){\r\n                require(fee <= address(this).balance, \"not enough balance\");\r\n                payable(treasury).transfer(fee); \r\n                emit CoinTransferred(address(this), treasury, fee);\r\n            }\r\n        \r\n        staticReps[owner].push(StaticRep({seller: owner, timestamp: block.timestamp}));\r\n        good.status = 2;\r\n            \r\n        } else if (_rule == 2){\r\n    \r\n             if(good.isCurrencyToken == true){\r\n                require(good.currency.transfer(good.buyer, good.price),  \"token transfer failed failed\");\r\n                emit TokenTransferred(address(this), good.buyer, good.currency, good.price); \r\n            \r\n            } else if (good.isCurrencyToken == false){\r\n                require(good.price <= address(this).balance, \"not enough balance\");\r\n                payable(good.buyer).transfer(good.price); \r\n                emit CoinTransferred(address(this), good.buyer, good.price);\r\n            }\r\n        negativeStaticReps[owner].push(NegativeStaticRep({seller: owner, timestamp: block.timestamp}));\r\n        good.status = 3;\r\n            \r\n        }\r\n    }\r\n    \r\n    // balance of available currencies in gateway\r\n    function getBalance(ERC20 _currency) public view onlyOwner returns (uint balance) {       \r\n        if (address(_currency) == address(0x0)) { \r\n            return address(this).balance;\r\n        }\r\n        else {\r\n            require(checkForSmartContract(address(_currency)), \"Invalid Contract address\");\r\n            return _currency.balanceOf(address(this));\r\n        }\r\n    }\r\n}",
  "sourcePath": "D:/Ethereum/Reputation-Gateway/src/contracts/gateway/PaymentGateway.sol",
  "compiler": {
    "name": "solc",
    "version": "0.8.1+commit.df193b15.Emscripten.clang"
  },
  "schemaVersion": "3.4.0",
  "updatedAt": "2021-07-13T08:50:12.401Z",
  "networkType": "ethereum",
  "devdoc": {
    "kind": "dev",
    "methods": {},
    "version": 1
  },
  "userdoc": {
    "kind": "user",
    "methods": {},
    "version": 1
  }
}