{
  "contractName": "Reputation",
  "abi": [
    {
      "inputs": [
        {
          "internalType": "address",
          "name": "_seller",
          "type": "address"
        }
      ],
      "name": "getStaticReps",
      "outputs": [
        {
          "internalType": "uint256",
          "name": "",
          "type": "uint256"
        }
      ],
      "stateMutability": "view",
      "type": "function"
    },
    {
      "inputs": [
        {
          "internalType": "address",
          "name": "_seller",
          "type": "address"
        }
      ],
      "name": "getNegetiveStaticReps",
      "outputs": [
        {
          "internalType": "uint256",
          "name": "",
          "type": "uint256"
        }
      ],
      "stateMutability": "view",
      "type": "function"
    },
    {
      "inputs": [
        {
          "internalType": "address",
          "name": "_seller",
          "type": "address"
        }
      ],
      "name": "dateOfTransactions",
      "outputs": [
        {
          "components": [
            {
              "internalType": "address",
              "name": "seller",
              "type": "address"
            },
            {
              "internalType": "uint256",
              "name": "timestamp",
              "type": "uint256"
            }
          ],
          "internalType": "struct Reputation.StaticRep[]",
          "name": "",
          "type": "tuple[]"
        }
      ],
      "stateMutability": "view",
      "type": "function"
    },
    {
      "inputs": [
        {
          "internalType": "address",
          "name": "_seller",
          "type": "address"
        }
      ],
      "name": "dateOfNegetiveTransactions",
      "outputs": [
        {
          "components": [
            {
              "internalType": "address",
              "name": "seller",
              "type": "address"
            },
            {
              "internalType": "uint256",
              "name": "timestamp",
              "type": "uint256"
            }
          ],
          "internalType": "struct Reputation.NegativeStaticRep[]",
          "name": "",
          "type": "tuple[]"
        }
      ],
      "stateMutability": "view",
      "type": "function"
    }
  ],
  "bytecode": "0x608060405234801561001057600080fd5b506106b2806100206000396000f3fe608060405234801561001057600080fd5b506004361061004c5760003560e01c806369061885146100515780637738f4e614610081578063a33dd645146100b1578063f2eea9c3146100e1575b600080fd5b61006b600480360381019061006691906103b8565b610111565b6040516100789190610558565b60405180910390f35b61009b600480360381019061009691906103b8565b61020f565b6040516100a8919061059c565b60405180910390f35b6100cb60048036038101906100c691906103b8565b61025a565b6040516100d8919061057a565b60405180910390f35b6100fb60048036038101906100f691906103b8565b610357565b604051610108919061059c565b60405180910390f35b6060600160008373ffffffffffffffffffffffffffffffffffffffff1673ffffffffffffffffffffffffffffffffffffffff168152602001908152602001600020805480602002602001604051908101604052809291908181526020016000905b8282101561020457838290600052602060002090600202016040518060400160405290816000820160009054906101000a900473ffffffffffffffffffffffffffffffffffffffff1673ffffffffffffffffffffffffffffffffffffffff1673ffffffffffffffffffffffffffffffffffffffff16815260200160018201548152505081526020019060010190610172565b505050509050919050565b60008060008373ffffffffffffffffffffffffffffffffffffffff1673ffffffffffffffffffffffffffffffffffffffff168152602001908152602001600020805490509050919050565b60606000808373ffffffffffffffffffffffffffffffffffffffff1673ffffffffffffffffffffffffffffffffffffffff168152602001908152602001600020805480602002602001604051908101604052809291908181526020016000905b8282101561034c57838290600052602060002090600202016040518060400160405290816000820160009054906101000a900473ffffffffffffffffffffffffffffffffffffffff1673ffffffffffffffffffffffffffffffffffffffff1673ffffffffffffffffffffffffffffffffffffffff168152602001600182015481525050815260200190600101906102ba565b505050509050919050565b6000600160008373ffffffffffffffffffffffffffffffffffffffff1673ffffffffffffffffffffffffffffffffffffffff168152602001908152602001600020805490509050919050565b6000813590506103b281610665565b92915050565b6000602082840312156103ca57600080fd5b60006103d8848285016103a3565b91505092915050565b60006103ed83836104dc565b60408301905092915050565b6000610405838361050b565b60408301905092915050565b61041a81610629565b82525050565b600061042b826105d7565b6104358185610607565b9350610440836105b7565b8060005b8381101561047157815161045888826103e1565b9750610463836105ed565b925050600181019050610444565b5085935050505092915050565b6000610489826105e2565b6104938185610618565b935061049e836105c7565b8060005b838110156104cf5781516104b688826103f9565b97506104c1836105fa565b9250506001810190506104a2565b5085935050505092915050565b6040820160008201516104f26000850182610411565b506020820151610505602085018261053a565b50505050565b6040820160008201516105216000850182610411565b506020820151610534602085018261053a565b50505050565b6105438161065b565b82525050565b6105528161065b565b82525050565b600060208201905081810360008301526105728184610420565b905092915050565b60006020820190508181036000830152610594818461047e565b905092915050565b60006020820190506105b16000830184610549565b92915050565b6000819050602082019050919050565b6000819050602082019050919050565b600081519050919050565b600081519050919050565b6000602082019050919050565b6000602082019050919050565b600082825260208201905092915050565b600082825260208201905092915050565b60006106348261063b565b9050919050565b600073ffffffffffffffffffffffffffffffffffffffff82169050919050565b6000819050919050565b61066e81610629565b811461067957600080fd5b5056fea26469706673582212203c473b0888d0a1548b859869c4440500f941a8e7a52959d494955349a9369b0a64736f6c63430008010033",
  "immutableReferences": {},
  "source": "// SPDX-License-Identifier: ISC\r\npragma solidity ^0.8.1;\r\n\r\ncontract Reputation {\r\n    \r\n    // Reputation Variables\r\n    struct StaticRep{\r\n        address seller;      // address seller\r\n        uint timestamp;\r\n    }\r\n    \r\n    struct NegativeStaticRep{\r\n        address seller;      // address seller\r\n        uint timestamp;\r\n    }\r\n    \r\n    mapping(address => StaticRep[]) staticReps;  // seller => StaticRep\r\n    mapping(address => NegativeStaticRep[]) negativeStaticReps;  // seller => NegetiveStaticRep\r\n\r\n    // count of static reps\r\n    function getStaticReps(address _seller) external view returns (uint) {\r\n        return staticReps[_seller].length;\r\n    }\r\n    \r\n    // count of negetive static reps\r\n    function getNegetiveStaticReps(address _seller) external view returns (uint) {\r\n        return negativeStaticReps[_seller].length;\r\n    }\r\n\r\n    // fetch seller with reputations timestamp\r\n    function dateOfTransactions(address _seller) external view returns (StaticRep[] memory) {\r\n            return staticReps[_seller];\r\n    }\r\n    \r\n    // fetch seller with reputations timestamp\r\n    function dateOfNegetiveTransactions(address _seller) external view returns (NegativeStaticRep[] memory) {\r\n            return negativeStaticReps[_seller];\r\n    }\r\n}",
  "sourcePath": "D:\\Ethereum\\Reputation-Gateway\\src\\contracts\\reputation\\Reputation.sol",
  "compiler": {
    "name": "solc",
    "version": "0.8.1+commit.df193b15.Emscripten.clang"
  },
  "schemaVersion": "3.4.0",
  "updatedAt": "2021-07-13T08:50:07.381Z",
  "devdoc": {
    "kind": "dev",
    "methods": {},
    "version": 1
  },
  "userdoc": {
    "kind": "user",
    "methods": {},
    "version": 1
  }
}