{
  "contractName": "Treasury",
  "abi": [
    {
      "inputs": [
        {
          "internalType": "address",
          "name": "_rptToken",
          "type": "address"
        }
      ],
      "stateMutability": "nonpayable",
      "type": "constructor"
    },
    {
      "anonymous": false,
      "inputs": [
        {
          "indexed": true,
          "internalType": "address",
          "name": "sender",
          "type": "address"
        },
        {
          "indexed": true,
          "internalType": "address",
          "name": "receiver",
          "type": "address"
        },
        {
          "indexed": false,
          "internalType": "uint256",
          "name": "value",
          "type": "uint256"
        }
      ],
      "name": "CoinTransferred",
      "type": "event"
    },
    {
      "anonymous": false,
      "inputs": [
        {
          "indexed": true,
          "internalType": "address",
          "name": "previousOwner",
          "type": "address"
        },
        {
          "indexed": true,
          "internalType": "address",
          "name": "newOwner",
          "type": "address"
        }
      ],
      "name": "OwnershipTransferred",
      "type": "event"
    },
    {
      "anonymous": false,
      "inputs": [
        {
          "indexed": true,
          "internalType": "address",
          "name": "sender",
          "type": "address"
        },
        {
          "indexed": true,
          "internalType": "address",
          "name": "receiver",
          "type": "address"
        },
        {
          "indexed": false,
          "internalType": "contract ERC20",
          "name": "currency",
          "type": "address"
        },
        {
          "indexed": false,
          "internalType": "uint256",
          "name": "value",
          "type": "uint256"
        }
      ],
      "name": "TokenTransferred",
      "type": "event"
    },
    {
      "inputs": [],
      "name": "owner",
      "outputs": [
        {
          "internalType": "address",
          "name": "",
          "type": "address"
        }
      ],
      "stateMutability": "view",
      "type": "function",
      "constant": true
    },
    {
      "inputs": [
        {
          "internalType": "address",
          "name": "_newOwner",
          "type": "address"
        }
      ],
      "name": "transferOwnership",
      "outputs": [],
      "stateMutability": "nonpayable",
      "type": "function"
    },
    {
      "inputs": [
        {
          "internalType": "address",
          "name": "_miner",
          "type": "address"
        }
      ],
      "name": "addMiner",
      "outputs": [],
      "stateMutability": "nonpayable",
      "type": "function"
    },
    {
      "inputs": [
        {
          "internalType": "address",
          "name": "_miner",
          "type": "address"
        }
      ],
      "name": "removeMiner",
      "outputs": [],
      "stateMutability": "nonpayable",
      "type": "function"
    },
    {
      "inputs": [
        {
          "internalType": "contract ERC20",
          "name": "_currency",
          "type": "address"
        },
        {
          "internalType": "address",
          "name": "_miner",
          "type": "address"
        },
        {
          "internalType": "uint256",
          "name": "_value",
          "type": "uint256"
        }
      ],
      "name": "sendMinerReward",
      "outputs": [],
      "stateMutability": "nonpayable",
      "type": "function"
    },
    {
      "inputs": [
        {
          "internalType": "contract ERC20",
          "name": "_currency",
          "type": "address"
        },
        {
          "internalType": "uint256",
          "name": "_value",
          "type": "uint256"
        }
      ],
      "name": "withdraw",
      "outputs": [],
      "stateMutability": "nonpayable",
      "type": "function"
    }
  ],
  "bytecode": "0x60806040523480156200001157600080fd5b506040516200175d3803806200175d83398181016040528101906200003791906200020a565b336000806101000a81548173ffffffffffffffffffffffffffffffffffffffff021916908373ffffffffffffffffffffffffffffffffffffffff16021790555080600260006101000a81548173ffffffffffffffffffffffffffffffffffffffff021916908373ffffffffffffffffffffffffffffffffffffffff160217905550600260009054906101000a900473ffffffffffffffffffffffffffffffffffffffff1673ffffffffffffffffffffffffffffffffffffffff16638da5cb5b6040518163ffffffff1660e01b815260040160206040518083038186803b1580156200012157600080fd5b505afa15801562000136573d6000803e3d6000fd5b505050506040513d601f19601f820116820180604052508101906200015c91906200020a565b73ffffffffffffffffffffffffffffffffffffffff1660008054906101000a900473ffffffffffffffffffffffffffffffffffffffff1673ffffffffffffffffffffffffffffffffffffffff1614620001ec576040517f08c379a0000000000000000000000000000000000000000000000000000000008152600401620001e3906200025d565b60405180910390fd5b5062000307565b6000815190506200020481620002ed565b92915050565b6000602082840312156200021d57600080fd5b60006200022d84828501620001f3565b91505092915050565b6000620002456018836200027f565b91506200025282620002c4565b602082019050919050565b60006020820190508181036000830152620002788162000236565b9050919050565b600082825260208201905092915050565b60006200029d82620002a4565b9050919050565b600073ffffffffffffffffffffffffffffffffffffffff82169050919050565b7f796f75206e65656420746f20626520525054206f776e65720000000000000000600082015250565b620002f88162000290565b81146200030457600080fd5b50565b61144680620003176000396000f3fe608060405234801561001057600080fd5b50600436106100625760003560e01c806310242590146100675780638da5cb5b14610083578063bd739fe5146100a1578063f2fde38b146100bd578063f3982e5e146100d9578063f3fef3a3146100f5575b600080fd5b610081600480360381019061007c9190610e96565b610111565b005b61008b6102b1565b604051610098919061109b565b60405180910390f35b6100bb60048036038101906100b69190610ee8565b6102d5565b005b6100d760048036038101906100d29190610e96565b61073a565b005b6100f360048036038101906100ee9190610e96565b610889565b005b61010f600480360381019061010a9190610f37565b610a29565b005b60008054906101000a900473ffffffffffffffffffffffffffffffffffffffff1673ffffffffffffffffffffffffffffffffffffffff163373ffffffffffffffffffffffffffffffffffffffff161461016957600080fd5b6000600260009054906101000a900473ffffffffffffffffffffffffffffffffffffffff1673ffffffffffffffffffffffffffffffffffffffff166342623360836040518263ffffffff1660e01b81526004016101c6919061109b565b60206040518083038186803b1580156101de57600080fd5b505afa1580156101f2573d6000803e3d6000fd5b505050506040513d601f19601f820116820180604052508101906102169190610f73565b14610256576040517f08c379a000000000000000000000000000000000000000000000000000000000815260040161024d90611128565b60405180910390fd5b6000600160008373ffffffffffffffffffffffffffffffffffffffff1673ffffffffffffffffffffffffffffffffffffffff16815260200190815260200160002060006101000a81548160ff02191690831515021790555050565b60008054906101000a900473ffffffffffffffffffffffffffffffffffffffff1681565b60008054906101000a900473ffffffffffffffffffffffffffffffffffffffff1673ffffffffffffffffffffffffffffffffffffffff163373ffffffffffffffffffffffffffffffffffffffff161461032d57600080fd5b600160003073ffffffffffffffffffffffffffffffffffffffff1673ffffffffffffffffffffffffffffffffffffffff16815260200190815260200160002060009054906101000a900460ff16806103ce5750600160008373ffffffffffffffffffffffffffffffffffffffff1673ffffffffffffffffffffffffffffffffffffffff16815260200190815260200160002060009054906101000a900460ff165b61040d576040517f08c379a0000000000000000000000000000000000000000000000000000000008152600401610404906111a8565b60405180910390fd5b600073ffffffffffffffffffffffffffffffffffffffff168373ffffffffffffffffffffffffffffffffffffffff1614156105365747811115610485576040517f08c379a000000000000000000000000000000000000000000000000000000000815260040161047c90611168565b60405180910390fd5b8173ffffffffffffffffffffffffffffffffffffffff166108fc829081150290604051600060405180830381858888f193505050501580156104cb573d6000803e3d6000fd5b508173ffffffffffffffffffffffffffffffffffffffff163073ffffffffffffffffffffffffffffffffffffffff167f9a8cb9c9a56a2f68f91554d7bdb72be0d5f88884d0084b6772230095e695fe428360405161052991906111c8565b60405180910390a3610735565b8273ffffffffffffffffffffffffffffffffffffffff166370a08231306040518263ffffffff1660e01b815260040161056f919061109b565b60206040518083038186803b15801561058757600080fd5b505afa15801561059b573d6000803e3d6000fd5b505050506040513d601f19601f820116820180604052508101906105bf9190610f73565b811115610601576040517f08c379a00000000000000000000000000000000000000000000000000000000081526004016105f890611188565b60405180910390fd5b8273ffffffffffffffffffffffffffffffffffffffff1663a9059cbb83836040518363ffffffff1660e01b815260040161063c9291906110b6565b602060405180830381600087803b15801561065657600080fd5b505af115801561066a573d6000803e3d6000fd5b505050506040513d601f19601f8201168201806040525081019061068e9190610ebf565b6106cd576040517f08c379a00000000000000000000000000000000000000000000000000000000081526004016106c490611148565b60405180910390fd5b8173ffffffffffffffffffffffffffffffffffffffff163073ffffffffffffffffffffffffffffffffffffffff167f9af266b6ca4909f988dc948fb50ad15153abbe525351881bad4fa858be96515c858460405161072c9291906110df565b60405180910390a35b505050565b60008054906101000a900473ffffffffffffffffffffffffffffffffffffffff1673ffffffffffffffffffffffffffffffffffffffff163373ffffffffffffffffffffffffffffffffffffffff161461079257600080fd5b600073ffffffffffffffffffffffffffffffffffffffff168173ffffffffffffffffffffffffffffffffffffffff1614156107cc57600080fd5b8073ffffffffffffffffffffffffffffffffffffffff1660008054906101000a900473ffffffffffffffffffffffffffffffffffffffff1673ffffffffffffffffffffffffffffffffffffffff167f8be0079c531659141344cd1fd0a4f28419497f9722a3daafe3b4186f6b6457e060405160405180910390a3806000806101000a81548173ffffffffffffffffffffffffffffffffffffffff021916908373ffffffffffffffffffffffffffffffffffffffff16021790555050565b60008054906101000a900473ffffffffffffffffffffffffffffffffffffffff1673ffffffffffffffffffffffffffffffffffffffff163373ffffffffffffffffffffffffffffffffffffffff16146108e157600080fd5b6064600260009054906101000a900473ffffffffffffffffffffffffffffffffffffffff1673ffffffffffffffffffffffffffffffffffffffff166342623360836040518263ffffffff1660e01b815260040161093e919061109b565b60206040518083038186803b15801561095657600080fd5b505afa15801561096a573d6000803e3d6000fd5b505050506040513d601f19601f8201168201806040525081019061098e9190610f73565b10156109cf576040517f08c379a00000000000000000000000000000000000000000000000000000000081526004016109c690611108565b60405180910390fd5b60018060008373ffffffffffffffffffffffffffffffffffffffff1673ffffffffffffffffffffffffffffffffffffffff16815260200190815260200160002060006101000a81548160ff02191690831515021790555050565b60008054906101000a900473ffffffffffffffffffffffffffffffffffffffff1673ffffffffffffffffffffffffffffffffffffffff163373ffffffffffffffffffffffffffffffffffffffff1614610a8157600080fd5b600073ffffffffffffffffffffffffffffffffffffffff168273ffffffffffffffffffffffffffffffffffffffff161415610bea5747811115610af9576040517f08c379a0000000000000000000000000000000000000000000000000000000008152600401610af090611168565b60405180910390fd5b60008054906101000a900473ffffffffffffffffffffffffffffffffffffffff1673ffffffffffffffffffffffffffffffffffffffff166108fc829081150290604051600060405180830381858888f19350505050158015610b5f573d6000803e3d6000fd5b5060008054906101000a900473ffffffffffffffffffffffffffffffffffffffff1673ffffffffffffffffffffffffffffffffffffffff163073ffffffffffffffffffffffffffffffffffffffff167f9a8cb9c9a56a2f68f91554d7bdb72be0d5f88884d0084b6772230095e695fe4283604051610bdd91906111c8565b60405180910390a3610e29565b8173ffffffffffffffffffffffffffffffffffffffff166370a08231306040518263ffffffff1660e01b8152600401610c23919061109b565b60206040518083038186803b158015610c3b57600080fd5b505afa158015610c4f573d6000803e3d6000fd5b505050506040513d601f19601f82011682018060405250810190610c739190610f73565b811115610cb5576040517f08c379a0000000000000000000000000000000000000000000000000000000008152600401610cac90611188565b60405180910390fd5b8173ffffffffffffffffffffffffffffffffffffffff1663a9059cbb60008054906101000a900473ffffffffffffffffffffffffffffffffffffffff16836040518363ffffffff1660e01b8152600401610d109291906110b6565b602060405180830381600087803b158015610d2a57600080fd5b505af1158015610d3e573d6000803e3d6000fd5b505050506040513d601f19601f82011682018060405250810190610d629190610ebf565b610da1576040517f08c379a0000000000000000000000000000000000000000000000000000000008152600401610d9890611148565b60405180910390fd5b60008054906101000a900473ffffffffffffffffffffffffffffffffffffffff1673ffffffffffffffffffffffffffffffffffffffff163073ffffffffffffffffffffffffffffffffffffffff167f9af266b6ca4909f988dc948fb50ad15153abbe525351881bad4fa858be96515c8484604051610e209291906110df565b60405180910390a35b5050565b600081359050610e3c816113b4565b92915050565b600081519050610e51816113cb565b92915050565b600081359050610e66816113e2565b92915050565b600081359050610e7b816113f9565b92915050565b600081519050610e90816113f9565b92915050565b600060208284031215610ea857600080fd5b6000610eb684828501610e2d565b91505092915050565b600060208284031215610ed157600080fd5b6000610edf84828501610e42565b91505092915050565b600080600060608486031215610efd57600080fd5b6000610f0b86828701610e57565b9350506020610f1c86828701610e2d565b9250506040610f2d86828701610e6c565b9150509250925092565b60008060408385031215610f4a57600080fd5b6000610f5885828601610e57565b9250506020610f6985828601610e6c565b9150509250929050565b600060208284031215610f8557600080fd5b6000610f9384828501610e81565b91505092915050565b610fa5816111f4565b82525050565b610fb48161124e565b82525050565b6000610fc76030836111e3565b9150610fd282611272565b604082019050919050565b6000610fea6033836111e3565b9150610ff5826112c1565b604082019050919050565b600061100d601c836111e3565b915061101882611310565b602082019050919050565b60006110306012836111e3565b915061103b82611339565b602082019050919050565b60006110536018836111e3565b915061105e82611362565b602082019050919050565b6000611076601a836111e3565b91506110818261138b565b602082019050919050565b61109581611244565b82525050565b60006020820190506110b06000830184610f9c565b92915050565b60006040820190506110cb6000830185610f9c565b6110d8602083018461108c565b9392505050565b60006040820190506110f46000830185610fab565b611101602083018461108c565b9392505050565b6000602082019050818103600083015261112181610fba565b9050919050565b6000602082019050818103600083015261114181610fdd565b9050919050565b6000602082019050818103600083015261116181611000565b9050919050565b6000602082019050818103600083015261118181611023565b9050919050565b600060208201905081810360008301526111a181611046565b9050919050565b600060208201905081810360008301526111c181611069565b9050919050565b60006020820190506111dd600083018461108c565b92915050565b600082825260208201905092915050565b60006111ff82611224565b9050919050565b60008115159050919050565b600061121d826111f4565b9050919050565b600073ffffffffffffffffffffffffffffffffffffffff82169050919050565b6000819050919050565b600061125982611260565b9050919050565b600061126b82611224565b9050919050565b7f54686973206d696e657220646964206e6f74207374616b6520656e6f7567682060008201527f746f206265636f6d65206d696e65722100000000000000000000000000000000602082015250565b7f54686973206d696e6572207374696c6c20686173207374616b652c20796f752060008201527f63616e6e6f742072656d6f7665207468656d2100000000000000000000000000602082015250565b7f746f6b656e207472616e73666572206661696c6564206661696c656400000000600082015250565b7f6e6f7420656e6f7567682062616c616e63650000000000000000000000000000600082015250565b7f6e6f7420656e6f75676820546f6b656e2062616c616e63650000000000000000600082015250565b7f54686973206973206e6f7420612076616c6964206d696e657221000000000000600082015250565b6113bd816111f4565b81146113c857600080fd5b50565b6113d481611206565b81146113df57600080fd5b50565b6113eb81611212565b81146113f657600080fd5b50565b61140281611244565b811461140d57600080fd5b5056fea26469706673582212204d5cd4739ffeff05c579e1160d92e24bec9ac5ed2bf976c60d984b7d75621d2a64736f6c63430008010033",
  "immutableReferences": {},
  "source": "// SPDX-License-Identifier: ISC\r\n\r\npragma solidity ^0.8.1;\r\n\r\nimport \"../ownership/Ownership.sol\";\r\nimport \"../token/ERC20.sol\";\r\nimport \"../lib/SafeMath.sol\";\r\n\r\ncontract Treasury is Ownership{\r\n    \r\n    // emits when coins(not tokens) are transferred\r\n    event CoinTransferred(address indexed sender, address indexed receiver, uint value);    \r\n    // emits when tokens are transferred\r\n    event TokenTransferred(address indexed sender, address indexed receiver, ERC20 currency, uint value); \r\n    \r\n    // address ether :0x0000000000000000000000000000000000000000\r\n    \r\n    mapping(address => bool)  allowedMiners;\r\n    \r\n    ERC20 RPT;\r\n    \r\n    constructor(address _rptToken) {\r\n        RPT = ERC20(_rptToken);\r\n        \r\n        require(owner == RPT.owner(), \"you need to be RPT owner\");\r\n    }\r\n    \r\n    function addMiner(address _miner) public onlyOwner {\r\n        require(RPT.stakeOf(_miner) >= 100 ,\"This miner did not stake enough to become miner!\");\r\n        allowedMiners[_miner] = true;\r\n    }\r\n    \r\n    function removeMiner(address _miner) public onlyOwner {\r\n        require(RPT.stakeOf(_miner) == 0 ,\"This miner still has stake, you cannot remove them!\");\r\n        allowedMiners[_miner] = false;\r\n    }\r\n    \r\n    function sendMinerReward(ERC20 _currency, address _miner, uint _value) public onlyOwner {\r\n        require(allowedMiners[address(this)] || allowedMiners[_miner],\"This is not a valid miner!\");\r\n        if (address(_currency) == address(0x0)) {\r\n            require(_value <= address(this).balance, \"not enough balance\");\r\n            payable(_miner).transfer(_value);\r\n            emit CoinTransferred(address(this), _miner, _value);\r\n        } else {\r\n            require(_value <= _currency.balanceOf(address(this)), \"not enough Token balance\");\r\n            require(_currency.transfer(_miner, _value),  \"token transfer failed failed\");\r\n            // event for transfer to owner\r\n            emit TokenTransferred(address(this), _miner , _currency, _value);  \r\n        }\r\n    }\r\n    \r\n    function withdraw(ERC20 _currency, uint _value) public onlyOwner {\r\n        if (address(_currency) == address(0x0)) {\r\n            require(_value <= address(this).balance, \"not enough balance\");\r\n            payable(owner).transfer(_value);\r\n            emit CoinTransferred(address(this), owner, _value);\r\n        } else {\r\n            require(_value <= _currency.balanceOf(address(this)), \"not enough Token balance\");\r\n            require(_currency.transfer(owner, _value),  \"token transfer failed failed\");\r\n            // event for transfer to owner\r\n            emit TokenTransferred(address(this), owner , _currency, _value);  \r\n        }\r\n    }\r\n    \r\n}",
  "sourcePath": "D:\\Ethereum\\Reputation-Gateway\\src\\contracts\\treasury\\Treasury.sol",
  "compiler": {
    "name": "solc",
    "version": "0.8.1+commit.df193b15.Emscripten.clang"
  },
  "schemaVersion": "3.4.0",
  "updatedAt": "2021-07-13T08:50:12.378Z",
  "networkType": "ethereum",
  "devdoc": {
    "kind": "dev",
    "methods": {},
    "version": 1
  },
  "userdoc": {
    "kind": "user",
    "methods": {},
    "version": 1
  }
}